{
  "contractName": "OnChainNft",
  "abi": [
    {
      "inputs": [],
      "stateMutability": "nonpayable",
      "type": "constructor"
    },
    {
      "anonymous": false,
      "inputs": [
        {
          "indexed": true,
          "internalType": "address",
          "name": "owner",
          "type": "address"
        },
        {
          "indexed": true,
          "internalType": "address",
          "name": "approved",
          "type": "address"
        },
        {
          "indexed": true,
          "internalType": "uint256",
          "name": "tokenId",
          "type": "uint256"
        }
      ],
      "name": "Approval",
      "type": "event"
    },
    {
      "anonymous": false,
      "inputs": [
        {
          "indexed": true,
          "internalType": "address",
          "name": "owner",
          "type": "address"
        },
        {
          "indexed": true,
          "internalType": "address",
          "name": "operator",
          "type": "address"
        },
        {
          "indexed": false,
          "internalType": "bool",
          "name": "approved",
          "type": "bool"
        }
      ],
      "name": "ApprovalForAll",
      "type": "event"
    },
    {
      "anonymous": false,
      "inputs": [
        {
          "indexed": true,
          "internalType": "address",
          "name": "previousOwner",
          "type": "address"
        },
        {
          "indexed": true,
          "internalType": "address",
          "name": "newOwner",
          "type": "address"
        }
      ],
      "name": "OwnershipTransferred",
      "type": "event"
    },
    {
      "anonymous": false,
      "inputs": [
        {
          "indexed": true,
          "internalType": "address",
          "name": "from",
          "type": "address"
        },
        {
          "indexed": true,
          "internalType": "address",
          "name": "to",
          "type": "address"
        },
        {
          "indexed": true,
          "internalType": "uint256",
          "name": "tokenId",
          "type": "uint256"
        }
      ],
      "name": "Transfer",
      "type": "event"
    },
    {
      "inputs": [
        {
          "internalType": "address",
          "name": "to",
          "type": "address"
        },
        {
          "internalType": "uint256",
          "name": "tokenId",
          "type": "uint256"
        }
      ],
      "name": "approve",
      "outputs": [],
      "stateMutability": "nonpayable",
      "type": "function"
    },
    {
      "inputs": [
        {
          "internalType": "address",
          "name": "owner",
          "type": "address"
        }
      ],
      "name": "balanceOf",
      "outputs": [
        {
          "internalType": "uint256",
          "name": "",
          "type": "uint256"
        }
      ],
      "stateMutability": "view",
      "type": "function",
      "constant": true
    },
    {
      "inputs": [
        {
          "internalType": "uint256",
          "name": "tokenId",
          "type": "uint256"
        }
      ],
      "name": "getApproved",
      "outputs": [
        {
          "internalType": "address",
          "name": "",
          "type": "address"
        }
      ],
      "stateMutability": "view",
      "type": "function",
      "constant": true
    },
    {
      "inputs": [
        {
          "internalType": "address",
          "name": "owner",
          "type": "address"
        },
        {
          "internalType": "address",
          "name": "operator",
          "type": "address"
        }
      ],
      "name": "isApprovedForAll",
      "outputs": [
        {
          "internalType": "bool",
          "name": "",
          "type": "bool"
        }
      ],
      "stateMutability": "view",
      "type": "function",
      "constant": true
    },
    {
      "inputs": [],
      "name": "name",
      "outputs": [
        {
          "internalType": "string",
          "name": "",
          "type": "string"
        }
      ],
      "stateMutability": "view",
      "type": "function",
      "constant": true
    },
    {
      "inputs": [],
      "name": "owner",
      "outputs": [
        {
          "internalType": "address",
          "name": "",
          "type": "address"
        }
      ],
      "stateMutability": "view",
      "type": "function",
      "constant": true
    },
    {
      "inputs": [
        {
          "internalType": "uint256",
          "name": "tokenId",
          "type": "uint256"
        }
      ],
      "name": "ownerOf",
      "outputs": [
        {
          "internalType": "address",
          "name": "",
          "type": "address"
        }
      ],
      "stateMutability": "view",
      "type": "function",
      "constant": true
    },
    {
      "inputs": [],
      "name": "renounceOwnership",
      "outputs": [],
      "stateMutability": "nonpayable",
      "type": "function"
    },
    {
      "inputs": [
        {
          "internalType": "address",
          "name": "from",
          "type": "address"
        },
        {
          "internalType": "address",
          "name": "to",
          "type": "address"
        },
        {
          "internalType": "uint256",
          "name": "tokenId",
          "type": "uint256"
        }
      ],
      "name": "safeTransferFrom",
      "outputs": [],
      "stateMutability": "nonpayable",
      "type": "function"
    },
    {
      "inputs": [
        {
          "internalType": "address",
          "name": "from",
          "type": "address"
        },
        {
          "internalType": "address",
          "name": "to",
          "type": "address"
        },
        {
          "internalType": "uint256",
          "name": "tokenId",
          "type": "uint256"
        },
        {
          "internalType": "bytes",
          "name": "_data",
          "type": "bytes"
        }
      ],
      "name": "safeTransferFrom",
      "outputs": [],
      "stateMutability": "nonpayable",
      "type": "function"
    },
    {
      "inputs": [
        {
          "internalType": "address",
          "name": "operator",
          "type": "address"
        },
        {
          "internalType": "bool",
          "name": "approved",
          "type": "bool"
        }
      ],
      "name": "setApprovalForAll",
      "outputs": [],
      "stateMutability": "nonpayable",
      "type": "function"
    },
    {
      "inputs": [
        {
          "internalType": "bytes4",
          "name": "interfaceId",
          "type": "bytes4"
        }
      ],
      "name": "supportsInterface",
      "outputs": [
        {
          "internalType": "bool",
          "name": "",
          "type": "bool"
        }
      ],
      "stateMutability": "view",
      "type": "function",
      "constant": true
    },
    {
      "inputs": [],
      "name": "symbol",
      "outputs": [
        {
          "internalType": "string",
          "name": "",
          "type": "string"
        }
      ],
      "stateMutability": "view",
      "type": "function",
      "constant": true
    },
    {
      "inputs": [
        {
          "internalType": "uint256",
          "name": "index",
          "type": "uint256"
        }
      ],
      "name": "tokenByIndex",
      "outputs": [
        {
          "internalType": "uint256",
          "name": "",
          "type": "uint256"
        }
      ],
      "stateMutability": "view",
      "type": "function",
      "constant": true
    },
    {
      "inputs": [
        {
          "internalType": "address",
          "name": "owner",
          "type": "address"
        },
        {
          "internalType": "uint256",
          "name": "index",
          "type": "uint256"
        }
      ],
      "name": "tokenOfOwnerByIndex",
      "outputs": [
        {
          "internalType": "uint256",
          "name": "",
          "type": "uint256"
        }
      ],
      "stateMutability": "view",
      "type": "function",
      "constant": true
    },
    {
      "inputs": [],
      "name": "totalSupply",
      "outputs": [
        {
          "internalType": "uint256",
          "name": "",
          "type": "uint256"
        }
      ],
      "stateMutability": "view",
      "type": "function",
      "constant": true
    },
    {
      "inputs": [
        {
          "internalType": "address",
          "name": "from",
          "type": "address"
        },
        {
          "internalType": "address",
          "name": "to",
          "type": "address"
        },
        {
          "internalType": "uint256",
          "name": "tokenId",
          "type": "uint256"
        }
      ],
      "name": "transferFrom",
      "outputs": [],
      "stateMutability": "nonpayable",
      "type": "function"
    },
    {
      "inputs": [
        {
          "internalType": "address",
          "name": "newOwner",
          "type": "address"
        }
      ],
      "name": "transferOwnership",
      "outputs": [],
      "stateMutability": "nonpayable",
      "type": "function"
    },
    {
      "inputs": [],
      "name": "mint",
      "outputs": [],
      "stateMutability": "payable",
      "type": "function",
      "payable": true
    },
    {
      "inputs": [],
      "name": "buildImage",
      "outputs": [
        {
          "internalType": "string",
          "name": "",
          "type": "string"
        }
      ],
      "stateMutability": "pure",
      "type": "function",
      "constant": true
    },
    {
      "inputs": [
        {
          "internalType": "uint256",
          "name": "tokenId",
          "type": "uint256"
        }
      ],
      "name": "tokenURI",
      "outputs": [
        {
          "internalType": "string",
          "name": "",
          "type": "string"
        }
      ],
      "stateMutability": "view",
      "type": "function",
      "constant": true
    },
    {
      "inputs": [],
      "name": "withdraw",
      "outputs": [],
      "stateMutability": "payable",
      "type": "function",
      "payable": true
    }
  ],
  "bytecode": "0x60806040523480156200001157600080fd5b50604080518082018252600c81526b13db8810da185a5b8813919560a21b60208083019182528351808501909452600384526227a1a760e91b9084015281519192916200006191600091620000f0565b50805162000077906001906020840190620000f0565b505050620000946200008e6200009a60201b60201c565b6200009e565b620001d3565b3390565b600a80546001600160a01b038381166001600160a01b0319831681179093556040519116919082907f8be0079c531659141344cd1fd0a4f28419497f9722a3daafe3b4186f6b6457e090600090a35050565b828054620000fe9062000196565b90600052602060002090601f0160209004810192826200012257600085556200016d565b82601f106200013d57805160ff19168380011785556200016d565b828001600101855582156200016d579182015b828111156200016d57825182559160200191906001019062000150565b506200017b9291506200017f565b5090565b5b808211156200017b576000815560010162000180565b600181811c90821680620001ab57607f821691505b60208210811415620001cd57634e487b7160e01b600052602260045260246000fd5b50919050565b611e1180620001e36000396000f3fe6080604052600436106101355760003560e01c80634f6ccce7116100ab57806395d89b411161006f57806395d89b4114610322578063a22cb46514610337578063b88d4fde14610357578063c87b56dd14610377578063e985e9c514610397578063f2fde38b146103e057600080fd5b80634f6ccce71461028f5780636352211e146102af57806370a08231146102cf578063715018a6146102ef5780638da5cb5b1461030457600080fd5b806318160ddd116100fd57806318160ddd146101f357806323b872dd146102125780632f745c59146102325780633ccfd60b14610252578063422d84711461025a57806342842e0e1461026f57600080fd5b806301ffc9a71461013a57806306fdde031461016f578063081812fc14610191578063095ea7b3146101c95780631249c58b146101eb575b600080fd5b34801561014657600080fd5b5061015a6101553660046117ce565b610400565b60405190151581526020015b60405180910390f35b34801561017b57600080fd5b5061018461042b565b604051610166919061184a565b34801561019d57600080fd5b506101b16101ac36600461185d565b6104bd565b6040516001600160a01b039091168152602001610166565b3480156101d557600080fd5b506101e96101e4366004611892565b610557565b005b6101e961066d565b3480156101ff57600080fd5b506008545b604051908152602001610166565b34801561021e57600080fd5b506101e961022d3660046118bc565b6106d0565b34801561023e57600080fd5b5061020461024d366004611892565b610701565b6101e9610797565b34801561026657600080fd5b50610184610832565b34801561027b57600080fd5b506101e961028a3660046118bc565b610925565b34801561029b57600080fd5b506102046102aa36600461185d565b610940565b3480156102bb57600080fd5b506101b16102ca36600461185d565b6109d3565b3480156102db57600080fd5b506102046102ea3660046118f8565b610a4a565b3480156102fb57600080fd5b506101e9610ad1565b34801561031057600080fd5b50600a546001600160a01b03166101b1565b34801561032e57600080fd5b50610184610b07565b34801561034357600080fd5b506101e9610352366004611913565b610b16565b34801561036357600080fd5b506101e9610372366004611965565b610b25565b34801561038357600080fd5b5061018461039236600461185d565b610b5d565b3480156103a357600080fd5b5061015a6103b2366004611a41565b6001600160a01b03918216600090815260056020908152604080832093909416825291909152205460ff1690565b3480156103ec57600080fd5b506101e96103fb3660046118f8565b610c23565b60006001600160e01b0319821663780e9d6360e01b1480610425575061042582610cbb565b92915050565b60606000805461043a90611a74565b80601f016020809104026020016040519081016040528092919081815260200182805461046690611a74565b80156104b35780601f10610488576101008083540402835291602001916104b3565b820191906000526020600020905b81548152906001019060200180831161049657829003601f168201915b5050505050905090565b6000818152600260205260408120546001600160a01b031661053b5760405162461bcd60e51b815260206004820152602c60248201527f4552433732313a20617070726f76656420717565727920666f72206e6f6e657860448201526b34b9ba32b73a103a37b5b2b760a11b60648201526084015b60405180910390fd5b506000908152600460205260409020546001600160a01b031690565b6000610562826109d3565b9050806001600160a01b0316836001600160a01b031614156105d05760405162461bcd60e51b815260206004820152602160248201527f4552433732313a20617070726f76616c20746f2063757272656e74206f776e656044820152603960f91b6064820152608401610532565b336001600160a01b03821614806105ec57506105ec81336103b2565b61065e5760405162461bcd60e51b815260206004820152603860248201527f4552433732313a20617070726f76652063616c6c6572206973206e6f74206f7760448201527f6e6572206e6f7220617070726f76656420666f7220616c6c00000000000000006064820152608401610532565b6106688383610d0b565b505050565b600061067860085490565b90506103e8610688826001611ac5565b111561069357600080fd5b600a546001600160a01b031633146106b9576611c37937e080003410156106b957600080fd5b6106cd336106c8836001611ac5565b610d79565b50565b6106da3382610d93565b6106f65760405162461bcd60e51b815260040161053290611add565b610668838383610e8a565b600061070c83610a4a565b821061076e5760405162461bcd60e51b815260206004820152602b60248201527f455243373231456e756d657261626c653a206f776e657220696e646578206f7560448201526a74206f6620626f756e647360a81b6064820152608401610532565b506001600160a01b03919091166000908152600660209081526040808320938352929052205490565b600a546001600160a01b031633146107c15760405162461bcd60e51b815260040161053290611b2e565b60006107d5600a546001600160a01b031690565b6001600160a01b03164760405160006040518083038185875af1925050503d806000811461081f576040519150601f19603f3d011682016040523d82523d6000602084013e610824565b606091505b50509050806106cd57600080fd5b606061092060405160200161090c907f3c737667206865696768743d223330222077696474683d223230302220786d6c81527f6e733d22687474703a2f2f7777772e77332e6f72672f323030302f737667222060208201527f786d6c6e733a786c696e6b3d22687474703a2f2f7777772e77332e6f72672f3160408201527f3939392f786c696e6b223e3c7465787420783d22302220793d2231352220666960608201527f6c6c3d22726564223e48656c6c6f20576f726c643c2f746578743e3c2f7376676080820152601f60f91b60a082015260a10190565b604051602081830303815290604052611035565b905090565b61066883838360405180602001604052806000815250610b25565b600061094b60085490565b82106109ae5760405162461bcd60e51b815260206004820152602c60248201527f455243373231456e756d657261626c653a20676c6f62616c20696e646578206f60448201526b7574206f6620626f756e647360a01b6064820152608401610532565b600882815481106109c1576109c1611b63565b90600052602060002001549050919050565b6000818152600260205260408120546001600160a01b0316806104255760405162461bcd60e51b815260206004820152602960248201527f4552433732313a206f776e657220717565727920666f72206e6f6e657869737460448201526832b73a103a37b5b2b760b91b6064820152608401610532565b60006001600160a01b038216610ab55760405162461bcd60e51b815260206004820152602a60248201527f4552433732313a2062616c616e636520717565727920666f7220746865207a65604482015269726f206164647265737360b01b6064820152608401610532565b506001600160a01b031660009081526003602052604090205490565b600a546001600160a01b03163314610afb5760405162461bcd60e51b815260040161053290611b2e565b610b05600061119d565b565b60606001805461043a90611a74565b610b213383836111ef565b5050565b610b2f3383610d93565b610b4b5760405162461bcd60e51b815260040161053290611add565b610b57848484846112be565b50505050565b6000818152600260205260409020546060906001600160a01b0316610bdc5760405162461bcd60e51b815260206004820152602f60248201527f4552433732314d657461646174613a2055524920717565727920666f72206e6f60448201526e3732bc34b9ba32b73a103a37b5b2b760891b6064820152608401610532565b6000610be6610832565b9050610bfc8160405160200161090c9190611b79565b604051602001610c0c9190611c3c565b604051602081830303815290604052915050919050565b600a546001600160a01b03163314610c4d5760405162461bcd60e51b815260040161053290611b2e565b6001600160a01b038116610cb25760405162461bcd60e51b815260206004820152602660248201527f4f776e61626c653a206e6577206f776e657220697320746865207a65726f206160448201526564647265737360d01b6064820152608401610532565b6106cd8161119d565b60006001600160e01b031982166380ac58cd60e01b1480610cec57506001600160e01b03198216635b5e139f60e01b145b8061042557506301ffc9a760e01b6001600160e01b0319831614610425565b600081815260046020526040902080546001600160a01b0319166001600160a01b0384169081179091558190610d40826109d3565b6001600160a01b03167f8c5be1e5ebec7d5bd14f71427d1e84f3dd0314c0f7b2291e5b200ac8c7c3b92560405160405180910390a45050565b610b218282604051806020016040528060008152506112f1565b6000818152600260205260408120546001600160a01b0316610e0c5760405162461bcd60e51b815260206004820152602c60248201527f4552433732313a206f70657261746f7220717565727920666f72206e6f6e657860448201526b34b9ba32b73a103a37b5b2b760a11b6064820152608401610532565b6000610e17836109d3565b9050806001600160a01b0316846001600160a01b03161480610e525750836001600160a01b0316610e47846104bd565b6001600160a01b0316145b80610e8257506001600160a01b0380821660009081526005602090815260408083209388168352929052205460ff165b949350505050565b826001600160a01b0316610e9d826109d3565b6001600160a01b031614610f055760405162461bcd60e51b815260206004820152602960248201527f4552433732313a207472616e73666572206f6620746f6b656e2074686174206960448201526839903737ba1037bbb760b91b6064820152608401610532565b6001600160a01b038216610f675760405162461bcd60e51b8152602060048201526024808201527f4552433732313a207472616e7366657220746f20746865207a65726f206164646044820152637265737360e01b6064820152608401610532565b610f72838383611324565b610f7d600082610d0b565b6001600160a01b0383166000908152600360205260408120805460019290610fa6908490611c81565b90915550506001600160a01b0382166000908152600360205260408120805460019290610fd4908490611ac5565b909155505060008181526002602052604080822080546001600160a01b0319166001600160a01b0386811691821790925591518493918716917fddf252ad1be2c89b69c2b068fc378daa952ba7f163c4a11628f55a4df523b3ef91a4505050565b606081516000141561105557505060408051602081019091526000815290565b6000604051806060016040528060408152602001611d9c60409139905060006003845160026110849190611ac5565b61108e9190611c98565b611099906004611cba565b905060006110a8826020611ac5565b67ffffffffffffffff8111156110c0576110c061194f565b6040519080825280601f01601f1916602001820160405280156110ea576020820181803683370190505b509050818152600183018586518101602084015b818310156111585760039283018051603f601282901c811687015160f890811b8552600c83901c8216880151811b6001860152600683901c8216880151811b60028601529116860151901b938201939093526004016110fe565b60038951066001811461117257600281146111835761118f565b613d3d60f01b60011983015261118f565b603d60f81b6000198301525b509398975050505050505050565b600a80546001600160a01b038381166001600160a01b0319831681179093556040519116919082907f8be0079c531659141344cd1fd0a4f28419497f9722a3daafe3b4186f6b6457e090600090a35050565b816001600160a01b0316836001600160a01b031614156112515760405162461bcd60e51b815260206004820152601960248201527f4552433732313a20617070726f766520746f2063616c6c6572000000000000006044820152606401610532565b6001600160a01b03838116600081815260056020908152604080832094871680845294825291829020805460ff191686151590811790915591519182527f17307eab39ab6107e8899845ad3d59bd9653f200f220920489ca2b5937696c31910160405180910390a3505050565b6112c9848484610e8a565b6112d5848484846113dc565b610b575760405162461bcd60e51b815260040161053290611cd9565b6112fb83836114da565b61130860008484846113dc565b6106685760405162461bcd60e51b815260040161053290611cd9565b6001600160a01b03831661137f5761137a81600880546000838152600960205260408120829055600182018355919091527ff3f7a9fe364faab93b216da50a3214154f22a0a2b415b23a84c8169e8b636ee30155565b6113a2565b816001600160a01b0316836001600160a01b0316146113a2576113a28382611628565b6001600160a01b0382166113b957610668816116c5565b826001600160a01b0316826001600160a01b031614610668576106688282611774565b60006001600160a01b0384163b156114cf57604051630a85bd0160e11b81526001600160a01b0385169063150b7a0290611420903390899088908890600401611d2b565b6020604051808303816000875af192505050801561145b575060408051601f3d908101601f1916820190925261145891810190611d68565b60015b6114b5573d808015611489576040519150601f19603f3d011682016040523d82523d6000602084013e61148e565b606091505b5080516114ad5760405162461bcd60e51b815260040161053290611cd9565b805181602001fd5b6001600160e01b031916630a85bd0160e11b149050610e82565b506001949350505050565b6001600160a01b0382166115305760405162461bcd60e51b815260206004820181905260248201527f4552433732313a206d696e7420746f20746865207a65726f20616464726573736044820152606401610532565b6000818152600260205260409020546001600160a01b0316156115955760405162461bcd60e51b815260206004820152601c60248201527f4552433732313a20746f6b656e20616c7265616479206d696e746564000000006044820152606401610532565b6115a160008383611324565b6001600160a01b03821660009081526003602052604081208054600192906115ca908490611ac5565b909155505060008181526002602052604080822080546001600160a01b0319166001600160a01b03861690811790915590518392907fddf252ad1be2c89b69c2b068fc378daa952ba7f163c4a11628f55a4df523b3ef908290a45050565b6000600161163584610a4a565b61163f9190611c81565b600083815260076020526040902054909150808214611692576001600160a01b03841660009081526006602090815260408083208584528252808320548484528184208190558352600790915290208190555b5060009182526007602090815260408084208490556001600160a01b039094168352600681528383209183525290812055565b6008546000906116d790600190611c81565b600083815260096020526040812054600880549394509092849081106116ff576116ff611b63565b90600052602060002001549050806008838154811061172057611720611b63565b600091825260208083209091019290925582815260099091526040808220849055858252812055600880548061175857611758611d85565b6001900381819060005260206000200160009055905550505050565b600061177f83610a4a565b6001600160a01b039093166000908152600660209081526040808320868452825280832085905593825260079052919091209190915550565b6001600160e01b0319811681146106cd57600080fd5b6000602082840312156117e057600080fd5b81356117eb816117b8565b9392505050565b60005b8381101561180d5781810151838201526020016117f5565b83811115610b575750506000910152565b600081518084526118368160208601602086016117f2565b601f01601f19169290920160200192915050565b6020815260006117eb602083018461181e565b60006020828403121561186f57600080fd5b5035919050565b80356001600160a01b038116811461188d57600080fd5b919050565b600080604083850312156118a557600080fd5b6118ae83611876565b946020939093013593505050565b6000806000606084860312156118d157600080fd5b6118da84611876565b92506118e860208501611876565b9150604084013590509250925092565b60006020828403121561190a57600080fd5b6117eb82611876565b6000806040838503121561192657600080fd5b61192f83611876565b91506020830135801515811461194457600080fd5b809150509250929050565b634e487b7160e01b600052604160045260246000fd5b6000806000806080858703121561197b57600080fd5b61198485611876565b935061199260208601611876565b925060408501359150606085013567ffffffffffffffff808211156119b657600080fd5b818701915087601f8301126119ca57600080fd5b8135818111156119dc576119dc61194f565b604051601f8201601f19908116603f01168101908382118183101715611a0457611a0461194f565b816040528281528a6020848701011115611a1d57600080fd5b82602086016020830137600060208483010152809550505050505092959194509250565b60008060408385031215611a5457600080fd5b611a5d83611876565b9150611a6b60208401611876565b90509250929050565b600181811c90821680611a8857607f821691505b60208210811415611aa957634e487b7160e01b600052602260045260246000fd5b50919050565b634e487b7160e01b600052601160045260246000fd5b60008219821115611ad857611ad8611aaf565b500190565b60208082526031908201527f4552433732313a207472616e736665722063616c6c6572206973206e6f74206f6040820152701ddb995c881b9bdc88185c1c1c9bdd9959607a1b606082015260800190565b6020808252818101527f4f776e61626c653a2063616c6c6572206973206e6f7420746865206f776e6572604082015260600190565b634e487b7160e01b600052603260045260246000fd5b683d913730b6b2911d1160b91b8152665245504c41434560c81b600982015271111610113232b9b1b934b83a34b7b7111d1160711b601082015274135e48199a5c9cdd081bdb8818da185a5b881b999d605a1b60228201526c1116101134b6b0b3b2911d101160991b60378201527f646174613a696d6167652f7376672b786d6c3b6261736536342c00000000000060448201528151600090611c2381605e8501602087016117f2565b61227d60f01b605e939091019283015250606001919050565b7f646174613a6170706c69636174696f6e2f6a736f6e3b6261736536342c000000815260008251611c7481601d8501602087016117f2565b91909101601d0192915050565b600082821015611c9357611c93611aaf565b500390565b600082611cb557634e487b7160e01b600052601260045260246000fd5b500490565b6000816000190483118215151615611cd457611cd4611aaf565b500290565b60208082526032908201527f4552433732313a207472616e7366657220746f206e6f6e20455243373231526560408201527131b2b4bb32b91034b6b83632b6b2b73a32b960711b606082015260800190565b6001600160a01b0385811682528416602082015260408101839052608060608201819052600090611d5e9083018461181e565b9695505050505050565b600060208284031215611d7a57600080fd5b81516117eb816117b8565b634e487b7160e01b600052603160045260246000fdfe4142434445464748494a4b4c4d4e4f505152535455565758595a6162636465666768696a6b6c6d6e6f707172737475767778797a303132333435363738392b2fa2646970667358221220bc519ace3bcc3a929310a3f1611d6b5e854eab1accb091f4ac9a076ebd7e3a7964736f6c634300080b0033",
  "immutableReferences": {},
  "source": "// SPDX-License-Identifier: MIT\r\n\r\n// Amended by HashLips\r\n/**\r\n    !Disclaimer!\r\n    These contracts have been used to create tutorials,\r\n    and was created for the purpose to teach people\r\n    how to create smart contracts on the blockchain.\r\n    please review this code on your own before using any of\r\n    the following code for production.\r\n    HashLips will not be liable in any way if for the use \r\n    of the code. That being said, the code has been tested \r\n    to the best of the developers' knowledge to work as intended.\r\n*/\r\n\r\npragma solidity >=0.7.0 <0.9.0;\r\n\r\nimport \"@openzeppelin/contracts/token/ERC721/extensions/ERC721Enumerable.sol\";\r\nimport \"@openzeppelin/contracts/access/Ownable.sol\";\r\nimport \"./Base64.sol\";\r\n\r\ncontract OnChainNft is ERC721Enumerable, Ownable {\r\n  using Strings for uint256;\r\n\r\n  constructor() ERC721(\"On Chain NFT\", \"OCN\") {}\r\n\r\n  // public\r\n  function mint() public payable {\r\n    uint256 supply = totalSupply();\r\n    require(supply + 1 <= 1000);\r\n\r\n    if (msg.sender != owner()) {\r\n      require(msg.value >= 0.005 ether);\r\n    }\r\n    // supply+1 is the tokenId\r\n    _safeMint(msg.sender, supply + 1);\r\n  }\r\n\r\n  function buildImage() public pure returns(string memory){\r\n      return Base64.encode(bytes(string(abi.encodePacked(\r\n       '<svg height=\"30\" width=\"200\" xmlns=\"http://www.w3.org/2000/svg\" xmlns:xlink=\"http://www.w3.org/1999/xlink\"><text x=\"0\" y=\"15\" fill=\"red\">Hello World</text></svg>'\r\n      ))));\r\n\r\n  }\r\n\r\n  function tokenURI(uint256 tokenId)\r\n    public\r\n    view\r\n    virtual\r\n    override\r\n    returns (string memory)\r\n  {\r\n    require(\r\n      _exists(tokenId),\r\n      \"ERC721Metadata: URI query for nonexistent token\"\r\n    );\r\n    \r\n    string memory _uri = buildImage();\r\n    return string(abi.encodePacked(\r\n        'data:application/json;base64,',\r\n        Base64.encode(bytes(abi.encodePacked(\r\n            '{\"name\":\"',\r\n            \"REPLACE\",\r\n            '\", \"description\":\"',\r\n            \"My first on chain nft\",\r\n            '\", \"image\": \"',\r\n            'data:image/svg+xml;base64,',\r\n            _uri,\r\n            '\"}'\r\n        )))\r\n    ));\r\n      \r\n  }\r\n\r\n \r\n  function withdraw() public payable onlyOwner {\r\n    \r\n    // This will payout the owner 95% of the contract balance.\r\n    // Do not remove this otherwise you will not be able to withdraw the funds.\r\n    // =============================================================================\r\n    (bool os, ) = payable(owner()).call{value: address(this).balance}(\"\");\r\n    require(os);\r\n    // =============================================================================\r\n  }\r\n}",
  "sourcePath": "C:\\Users\\User\\Documents\\source codes\\dapps\\nft_onchain\\contracts\\OnChainNft.sol",
  "compiler": {
    "name": "solc",
    "version": "0.8.11+commit.d7f03943.Emscripten.clang"
  },
  "schemaVersion": "3.4.3",
  "updatedAt": "2022-02-10T07:43:55.944Z",
  "networkType": "ethereum",
  "devdoc": {
    "kind": "dev",
    "methods": {
      "approve(address,uint256)": {
        "details": "See {IERC721-approve}."
      },
      "balanceOf(address)": {
        "details": "See {IERC721-balanceOf}."
      },
      "getApproved(uint256)": {
        "details": "See {IERC721-getApproved}."
      },
      "isApprovedForAll(address,address)": {
        "details": "See {IERC721-isApprovedForAll}."
      },
      "name()": {
        "details": "See {IERC721Metadata-name}."
      },
      "owner()": {
        "details": "Returns the address of the current owner."
      },
      "ownerOf(uint256)": {
        "details": "See {IERC721-ownerOf}."
      },
      "renounceOwnership()": {
        "details": "Leaves the contract without owner. It will not be possible to call `onlyOwner` functions anymore. Can only be called by the current owner. NOTE: Renouncing ownership will leave the contract without an owner, thereby removing any functionality that is only available to the owner."
      },
      "safeTransferFrom(address,address,uint256)": {
        "details": "See {IERC721-safeTransferFrom}."
      },
      "safeTransferFrom(address,address,uint256,bytes)": {
        "details": "See {IERC721-safeTransferFrom}."
      },
      "setApprovalForAll(address,bool)": {
        "details": "See {IERC721-setApprovalForAll}."
      },
      "supportsInterface(bytes4)": {
        "details": "See {IERC165-supportsInterface}."
      },
      "symbol()": {
        "details": "See {IERC721Metadata-symbol}."
      },
      "tokenByIndex(uint256)": {
        "details": "See {IERC721Enumerable-tokenByIndex}."
      },
      "tokenOfOwnerByIndex(address,uint256)": {
        "details": "See {IERC721Enumerable-tokenOfOwnerByIndex}."
      },
      "tokenURI(uint256)": {
        "details": "See {IERC721Metadata-tokenURI}."
      },
      "totalSupply()": {
        "details": "See {IERC721Enumerable-totalSupply}."
      },
      "transferFrom(address,address,uint256)": {
        "details": "See {IERC721-transferFrom}."
      },
      "transferOwnership(address)": {
        "details": "Transfers ownership of the contract to a new account (`newOwner`). Can only be called by the current owner."
      }
    },
    "version": 1
  },
  "userdoc": {
    "kind": "user",
    "methods": {},
    "version": 1
  }
}