{
  "contractName": "OnChainNft",
  "abi": [
    {
      "inputs": [],
      "stateMutability": "nonpayable",
      "type": "constructor"
    },
    {
      "anonymous": false,
      "inputs": [
        {
          "indexed": true,
          "internalType": "address",
          "name": "owner",
          "type": "address"
        },
        {
          "indexed": true,
          "internalType": "address",
          "name": "approved",
          "type": "address"
        },
        {
          "indexed": true,
          "internalType": "uint256",
          "name": "tokenId",
          "type": "uint256"
        }
      ],
      "name": "Approval",
      "type": "event"
    },
    {
      "anonymous": false,
      "inputs": [
        {
          "indexed": true,
          "internalType": "address",
          "name": "owner",
          "type": "address"
        },
        {
          "indexed": true,
          "internalType": "address",
          "name": "operator",
          "type": "address"
        },
        {
          "indexed": false,
          "internalType": "bool",
          "name": "approved",
          "type": "bool"
        }
      ],
      "name": "ApprovalForAll",
      "type": "event"
    },
    {
      "anonymous": false,
      "inputs": [
        {
          "indexed": true,
          "internalType": "address",
          "name": "previousOwner",
          "type": "address"
        },
        {
          "indexed": true,
          "internalType": "address",
          "name": "newOwner",
          "type": "address"
        }
      ],
      "name": "OwnershipTransferred",
      "type": "event"
    },
    {
      "anonymous": false,
      "inputs": [
        {
          "indexed": true,
          "internalType": "address",
          "name": "from",
          "type": "address"
        },
        {
          "indexed": true,
          "internalType": "address",
          "name": "to",
          "type": "address"
        },
        {
          "indexed": true,
          "internalType": "uint256",
          "name": "tokenId",
          "type": "uint256"
        }
      ],
      "name": "Transfer",
      "type": "event"
    },
    {
      "inputs": [
        {
          "internalType": "address",
          "name": "to",
          "type": "address"
        },
        {
          "internalType": "uint256",
          "name": "tokenId",
          "type": "uint256"
        }
      ],
      "name": "approve",
      "outputs": [],
      "stateMutability": "nonpayable",
      "type": "function"
    },
    {
      "inputs": [
        {
          "internalType": "address",
          "name": "owner",
          "type": "address"
        }
      ],
      "name": "balanceOf",
      "outputs": [
        {
          "internalType": "uint256",
          "name": "",
          "type": "uint256"
        }
      ],
      "stateMutability": "view",
      "type": "function",
      "constant": true
    },
    {
      "inputs": [
        {
          "internalType": "uint256",
          "name": "tokenId",
          "type": "uint256"
        }
      ],
      "name": "getApproved",
      "outputs": [
        {
          "internalType": "address",
          "name": "",
          "type": "address"
        }
      ],
      "stateMutability": "view",
      "type": "function",
      "constant": true
    },
    {
      "inputs": [
        {
          "internalType": "address",
          "name": "owner",
          "type": "address"
        },
        {
          "internalType": "address",
          "name": "operator",
          "type": "address"
        }
      ],
      "name": "isApprovedForAll",
      "outputs": [
        {
          "internalType": "bool",
          "name": "",
          "type": "bool"
        }
      ],
      "stateMutability": "view",
      "type": "function",
      "constant": true
    },
    {
      "inputs": [],
      "name": "name",
      "outputs": [
        {
          "internalType": "string",
          "name": "",
          "type": "string"
        }
      ],
      "stateMutability": "view",
      "type": "function",
      "constant": true
    },
    {
      "inputs": [],
      "name": "owner",
      "outputs": [
        {
          "internalType": "address",
          "name": "",
          "type": "address"
        }
      ],
      "stateMutability": "view",
      "type": "function",
      "constant": true
    },
    {
      "inputs": [
        {
          "internalType": "uint256",
          "name": "tokenId",
          "type": "uint256"
        }
      ],
      "name": "ownerOf",
      "outputs": [
        {
          "internalType": "address",
          "name": "",
          "type": "address"
        }
      ],
      "stateMutability": "view",
      "type": "function",
      "constant": true
    },
    {
      "inputs": [],
      "name": "renounceOwnership",
      "outputs": [],
      "stateMutability": "nonpayable",
      "type": "function"
    },
    {
      "inputs": [
        {
          "internalType": "address",
          "name": "from",
          "type": "address"
        },
        {
          "internalType": "address",
          "name": "to",
          "type": "address"
        },
        {
          "internalType": "uint256",
          "name": "tokenId",
          "type": "uint256"
        }
      ],
      "name": "safeTransferFrom",
      "outputs": [],
      "stateMutability": "nonpayable",
      "type": "function"
    },
    {
      "inputs": [
        {
          "internalType": "address",
          "name": "from",
          "type": "address"
        },
        {
          "internalType": "address",
          "name": "to",
          "type": "address"
        },
        {
          "internalType": "uint256",
          "name": "tokenId",
          "type": "uint256"
        },
        {
          "internalType": "bytes",
          "name": "_data",
          "type": "bytes"
        }
      ],
      "name": "safeTransferFrom",
      "outputs": [],
      "stateMutability": "nonpayable",
      "type": "function"
    },
    {
      "inputs": [
        {
          "internalType": "address",
          "name": "operator",
          "type": "address"
        },
        {
          "internalType": "bool",
          "name": "approved",
          "type": "bool"
        }
      ],
      "name": "setApprovalForAll",
      "outputs": [],
      "stateMutability": "nonpayable",
      "type": "function"
    },
    {
      "inputs": [
        {
          "internalType": "bytes4",
          "name": "interfaceId",
          "type": "bytes4"
        }
      ],
      "name": "supportsInterface",
      "outputs": [
        {
          "internalType": "bool",
          "name": "",
          "type": "bool"
        }
      ],
      "stateMutability": "view",
      "type": "function",
      "constant": true
    },
    {
      "inputs": [],
      "name": "symbol",
      "outputs": [
        {
          "internalType": "string",
          "name": "",
          "type": "string"
        }
      ],
      "stateMutability": "view",
      "type": "function",
      "constant": true
    },
    {
      "inputs": [
        {
          "internalType": "uint256",
          "name": "index",
          "type": "uint256"
        }
      ],
      "name": "tokenByIndex",
      "outputs": [
        {
          "internalType": "uint256",
          "name": "",
          "type": "uint256"
        }
      ],
      "stateMutability": "view",
      "type": "function",
      "constant": true
    },
    {
      "inputs": [
        {
          "internalType": "address",
          "name": "owner",
          "type": "address"
        },
        {
          "internalType": "uint256",
          "name": "index",
          "type": "uint256"
        }
      ],
      "name": "tokenOfOwnerByIndex",
      "outputs": [
        {
          "internalType": "uint256",
          "name": "",
          "type": "uint256"
        }
      ],
      "stateMutability": "view",
      "type": "function",
      "constant": true
    },
    {
      "inputs": [],
      "name": "totalSupply",
      "outputs": [
        {
          "internalType": "uint256",
          "name": "",
          "type": "uint256"
        }
      ],
      "stateMutability": "view",
      "type": "function",
      "constant": true
    },
    {
      "inputs": [
        {
          "internalType": "address",
          "name": "from",
          "type": "address"
        },
        {
          "internalType": "address",
          "name": "to",
          "type": "address"
        },
        {
          "internalType": "uint256",
          "name": "tokenId",
          "type": "uint256"
        }
      ],
      "name": "transferFrom",
      "outputs": [],
      "stateMutability": "nonpayable",
      "type": "function"
    },
    {
      "inputs": [
        {
          "internalType": "address",
          "name": "newOwner",
          "type": "address"
        }
      ],
      "name": "transferOwnership",
      "outputs": [],
      "stateMutability": "nonpayable",
      "type": "function"
    },
    {
      "inputs": [
        {
          "internalType": "string",
          "name": "_message",
          "type": "string"
        }
      ],
      "name": "mint",
      "outputs": [],
      "stateMutability": "payable",
      "type": "function",
      "payable": true
    },
    {
      "inputs": [
        {
          "internalType": "uint256",
          "name": "_mod",
          "type": "uint256"
        },
        {
          "internalType": "uint256",
          "name": "_seed",
          "type": "uint256"
        },
        {
          "internalType": "uint256",
          "name": "_salt",
          "type": "uint256"
        }
      ],
      "name": "randomNum",
      "outputs": [
        {
          "internalType": "uint256",
          "name": "",
          "type": "uint256"
        }
      ],
      "stateMutability": "view",
      "type": "function",
      "constant": true
    },
    {
      "inputs": [
        {
          "internalType": "uint256",
          "name": "_tokenId",
          "type": "uint256"
        }
      ],
      "name": "buildImage",
      "outputs": [
        {
          "internalType": "string",
          "name": "",
          "type": "string"
        }
      ],
      "stateMutability": "view",
      "type": "function",
      "constant": true
    },
    {
      "inputs": [
        {
          "internalType": "uint256",
          "name": "tokenId",
          "type": "uint256"
        }
      ],
      "name": "tokenURI",
      "outputs": [
        {
          "internalType": "string",
          "name": "",
          "type": "string"
        }
      ],
      "stateMutability": "view",
      "type": "function",
      "constant": true
    },
    {
      "inputs": [],
      "name": "withdraw",
      "outputs": [],
      "stateMutability": "payable",
      "type": "function",
      "payable": true
    }
  ],
  "bytecode": "0x60806040523480156200001157600080fd5b50604080518082018252600781526610dbdb1bdc995960ca1b60208083019182528351808501909452600584526421a7a627a960d91b9084015281519192916200005e91600091620000ed565b50805162000074906001906020840190620000ed565b505050620000916200008b6200009760201b60201c565b6200009b565b620001d0565b3390565b600a80546001600160a01b038381166001600160a01b0319831681179093556040519116919082907f8be0079c531659141344cd1fd0a4f28419497f9722a3daafe3b4186f6b6457e090600090a35050565b828054620000fb9062000193565b90600052602060002090601f0160209004810192826200011f57600085556200016a565b82601f106200013a57805160ff19168380011785556200016a565b828001600101855582156200016a579182015b828111156200016a5782518255916020019190600101906200014d565b50620001789291506200017c565b5090565b5b808211156200017857600081556001016200017d565b600181811c90821680620001a857607f821691505b60208210811415620001ca57634e487b7160e01b600052602260045260246000fd5b50919050565b6123b080620001e06000396000f3fe6080604052600436106101405760003560e01c80634f6ccce7116100b6578063a22cb4651161006f578063a22cb46514610365578063b88d4fde14610385578063c87b56dd146103a5578063d85d3d27146103c5578063e985e9c5146103d8578063f2fde38b1461042157600080fd5b80634f6ccce7146102bd5780636352211e146102dd57806370a08231146102fd578063715018a61461031d5780638da5cb5b1461033257806395d89b411461035057600080fd5b806323b872dd1161010857806323b872dd1461021557806328294640146102355780632ba80eba146102555780632f745c59146102755780633ccfd60b1461029557806342842e0e1461029d57600080fd5b806301ffc9a71461014557806306fdde031461017a578063081812fc1461019c578063095ea7b3146101d457806318160ddd146101f6575b600080fd5b34801561015157600080fd5b50610165610160366004611a67565b610441565b60405190151581526020015b60405180910390f35b34801561018657600080fd5b5061018f61046c565b6040516101719190611ae3565b3480156101a857600080fd5b506101bc6101b7366004611af6565b6104fe565b6040516001600160a01b039091168152602001610171565b3480156101e057600080fd5b506101f46101ef366004611b2b565b610598565b005b34801561020257600080fd5b506008545b604051908152602001610171565b34801561022157600080fd5b506101f4610230366004611b55565b6106ae565b34801561024157600080fd5b50610207610250366004611b91565b6106df565b34801561026157600080fd5b5061018f610270366004611af6565b610747565b34801561028157600080fd5b50610207610290366004611b2b565b610796565b6101f461082c565b3480156102a957600080fd5b506101f46102b8366004611b55565b6108ca565b3480156102c957600080fd5b506102076102d8366004611af6565b6108e5565b3480156102e957600080fd5b506101bc6102f8366004611af6565b610978565b34801561030957600080fd5b50610207610318366004611bbd565b6109ef565b34801561032957600080fd5b506101f4610a76565b34801561033e57600080fd5b50600a546001600160a01b03166101bc565b34801561035c57600080fd5b5061018f610aac565b34801561037157600080fd5b506101f4610380366004611bd8565b610abb565b34801561039157600080fd5b506101f46103a0366004611ca0565b610aca565b3480156103b157600080fd5b5061018f6103c0366004611af6565b610b02565b6101f46103d3366004611d1c565b610bc9565b3480156103e457600080fd5b506101656103f3366004611d65565b6001600160a01b03918216600090815260056020908152604080832093909416825291909152205460ff1690565b34801561042d57600080fd5b506101f461043c366004611bbd565b610d25565b60006001600160e01b0319821663780e9d6360e01b1480610466575061046682610dbd565b92915050565b60606000805461047b90611d98565b80601f01602080910402602001604051908101604052809291908181526020018280546104a790611d98565b80156104f45780601f106104c9576101008083540402835291602001916104f4565b820191906000526020600020905b8154815290600101906020018083116104d757829003601f168201915b5050505050905090565b6000818152600260205260408120546001600160a01b031661057c5760405162461bcd60e51b815260206004820152602c60248201527f4552433732313a20617070726f76656420717565727920666f72206e6f6e657860448201526b34b9ba32b73a103a37b5b2b760a11b60648201526084015b60405180910390fd5b506000908152600460205260409020546001600160a01b031690565b60006105a382610978565b9050806001600160a01b0316836001600160a01b031614156106115760405162461bcd60e51b815260206004820152602160248201527f4552433732313a20617070726f76616c20746f2063757272656e74206f776e656044820152603960f91b6064820152608401610573565b336001600160a01b038216148061062d575061062d81336103f3565b61069f5760405162461bcd60e51b815260206004820152603860248201527f4552433732313a20617070726f76652063616c6c6572206973206e6f74206f7760448201527f6e6572206e6f7220617070726f76656420666f7220616c6c00000000000000006064820152608401610573565b6106a98383610e0d565b505050565b6106b83382610e7b565b6106d45760405162461bcd60e51b815260040161057390611dd3565b6106a9838383610f72565b604080514260208201526bffffffffffffffffffffffff193360601b16918101919091526054810183905260748101829052600090819085906094016040516020818303038152906040528051906020012060001c61073e9190611e3a565b95945050505050565b606061046661076261075d6101696003806106df565b61111d565b6000848152600b6020908152604091829020915161078293929101611e4e565b60405160208183030381529060405261121b565b60006107a1836109ef565b82106108035760405162461bcd60e51b815260206004820152602b60248201527f455243373231456e756d657261626c653a206f776e657220696e646578206f7560448201526a74206f6620626f756e647360a81b6064820152608401610573565b506001600160a01b03919091166000908152600660209081526040808320938352929052205490565b600a546001600160a01b031633146108565760405162461bcd60e51b815260040161057390612076565b600061086a600a546001600160a01b031690565b6001600160a01b03164760405160006040518083038185875af1925050503d80600081146108b4576040519150601f19603f3d011682016040523d82523d6000602084013e6108b9565b606091505b50509050806108c757600080fd5b50565b6106a983838360405180602001604052806000815250610aca565b60006108f060085490565b82106109535760405162461bcd60e51b815260206004820152602c60248201527f455243373231456e756d657261626c653a20676c6f62616c20696e646578206f60448201526b7574206f6620626f756e647360a01b6064820152608401610573565b60088281548110610966576109666120ab565b90600052602060002001549050919050565b6000818152600260205260408120546001600160a01b0316806104665760405162461bcd60e51b815260206004820152602960248201527f4552433732313a206f776e657220717565727920666f72206e6f6e657869737460448201526832b73a103a37b5b2b760b91b6064820152608401610573565b60006001600160a01b038216610a5a5760405162461bcd60e51b815260206004820152602a60248201527f4552433732313a2062616c616e636520717565727920666f7220746865207a65604482015269726f206164647265737360b01b6064820152608401610573565b506001600160a01b031660009081526003602052604090205490565b600a546001600160a01b03163314610aa05760405162461bcd60e51b815260040161057390612076565b610aaa6000611383565b565b60606001805461047b90611d98565b610ac63383836113d5565b5050565b610ad43383610e7b565b610af05760405162461bcd60e51b815260040161057390611dd3565b610afc848484846114a4565b50505050565b6000818152600260205260409020546060906001600160a01b0316610b815760405162461bcd60e51b815260206004820152602f60248201527f4552433732314d657461646174613a2055524920717565727920666f72206e6f60448201526e3732bc34b9ba32b73a103a37b5b2b760891b6064820152608401610573565b6000610b8c83610747565b9050610ba28160405160200161078291906120c1565b604051602001610bb29190612184565b604051602081830303815290604052915050919050565b6000610bd460085490565b90506103e8610be48260016121df565b1115610bef57600080fd5b6000825111610c405760405162461bcd60e51b815260206004820152601860248201527f456d70747920737472696e67206e6f7420616c6c6f77656400000000000000006044820152606401610573565b600c82604051610c5091906121f7565b9081526040519081900360200190205460ff1615610ca95760405162461bcd60e51b815260206004820152601660248201527513595cdcd859d948185b1c9958591e481b5a5b9d195960521b6044820152606401610573565b610cbd33610cb88360016121df565b6114d7565b81600b6000610ccd8460016121df565b81526020019081526020016000209080519060200190610cee9291906119b8565b506001600c83604051610d0191906121f7565b908152604051908190036020019020805491151560ff199092169190911790555050565b600a546001600160a01b03163314610d4f5760405162461bcd60e51b815260040161057390612076565b6001600160a01b038116610db45760405162461bcd60e51b815260206004820152602660248201527f4f776e61626c653a206e6577206f776e657220697320746865207a65726f206160448201526564647265737360d01b6064820152608401610573565b6108c781611383565b60006001600160e01b031982166380ac58cd60e01b1480610dee57506001600160e01b03198216635b5e139f60e01b145b8061046657506301ffc9a760e01b6001600160e01b0319831614610466565b600081815260046020526040902080546001600160a01b0319166001600160a01b0384169081179091558190610e4282610978565b6001600160a01b03167f8c5be1e5ebec7d5bd14f71427d1e84f3dd0314c0f7b2291e5b200ac8c7c3b92560405160405180910390a45050565b6000818152600260205260408120546001600160a01b0316610ef45760405162461bcd60e51b815260206004820152602c60248201527f4552433732313a206f70657261746f7220717565727920666f72206e6f6e657860448201526b34b9ba32b73a103a37b5b2b760a11b6064820152608401610573565b6000610eff83610978565b9050806001600160a01b0316846001600160a01b03161480610f3a5750836001600160a01b0316610f2f846104fe565b6001600160a01b0316145b80610f6a57506001600160a01b0380821660009081526005602090815260408083209388168352929052205460ff165b949350505050565b826001600160a01b0316610f8582610978565b6001600160a01b031614610fed5760405162461bcd60e51b815260206004820152602960248201527f4552433732313a207472616e73666572206f6620746f6b656e2074686174206960448201526839903737ba1037bbb760b91b6064820152608401610573565b6001600160a01b03821661104f5760405162461bcd60e51b8152602060048201526024808201527f4552433732313a207472616e7366657220746f20746865207a65726f206164646044820152637265737360e01b6064820152608401610573565b61105a8383836114f1565b611065600082610e0d565b6001600160a01b038316600090815260036020526040812080546001929061108e908490612213565b90915550506001600160a01b03821660009081526003602052604081208054600192906110bc9084906121df565b909155505060008181526002602052604080822080546001600160a01b0319166001600160a01b0386811691821790925591518493918716917fddf252ad1be2c89b69c2b068fc378daa952ba7f163c4a11628f55a4df523b3ef91a4505050565b6060816111415750506040805180820190915260018152600360fc1b602082015290565b8160005b811561116b57806111558161222a565b91506111649050600a83612245565b9150611145565b60008167ffffffffffffffff81111561118657611186611c14565b6040519080825280601f01601f1916602001820160405280156111b0576020820181803683370190505b5090505b8415610f6a576111c5600183612213565b91506111d2600a86611e3a565b6111dd9060306121df565b60f81b8183815181106111f2576111f26120ab565b60200101906001600160f81b031916908160001a905350611214600a86612245565b94506111b4565b606081516000141561123b57505060408051602081019091526000815290565b600060405180606001604052806040815260200161233b604091399050600060038451600261126a91906121df565b6112749190612245565b61127f906004612259565b9050600061128e8260206121df565b67ffffffffffffffff8111156112a6576112a6611c14565b6040519080825280601f01601f1916602001820160405280156112d0576020820181803683370190505b509050818152600183018586518101602084015b8183101561133e5760039283018051603f601282901c811687015160f890811b8552600c83901c8216880151811b6001860152600683901c8216880151811b60028601529116860151901b938201939093526004016112e4565b600389510660018114611358576002811461136957611375565b613d3d60f01b600119830152611375565b603d60f81b6000198301525b509398975050505050505050565b600a80546001600160a01b038381166001600160a01b0319831681179093556040519116919082907f8be0079c531659141344cd1fd0a4f28419497f9722a3daafe3b4186f6b6457e090600090a35050565b816001600160a01b0316836001600160a01b031614156114375760405162461bcd60e51b815260206004820152601960248201527f4552433732313a20617070726f766520746f2063616c6c6572000000000000006044820152606401610573565b6001600160a01b03838116600081815260056020908152604080832094871680845294825291829020805460ff191686151590811790915591519182527f17307eab39ab6107e8899845ad3d59bd9653f200f220920489ca2b5937696c31910160405180910390a3505050565b6114af848484610f72565b6114bb848484846115a9565b610afc5760405162461bcd60e51b815260040161057390612278565b610ac68282604051806020016040528060008152506116a7565b6001600160a01b03831661154c5761154781600880546000838152600960205260408120829055600182018355919091527ff3f7a9fe364faab93b216da50a3214154f22a0a2b415b23a84c8169e8b636ee30155565b61156f565b816001600160a01b0316836001600160a01b03161461156f5761156f83826116da565b6001600160a01b038216611586576106a981611777565b826001600160a01b0316826001600160a01b0316146106a9576106a98282611826565b60006001600160a01b0384163b1561169c57604051630a85bd0160e11b81526001600160a01b0385169063150b7a02906115ed9033908990889088906004016122ca565b6020604051808303816000875af1925050508015611628575060408051601f3d908101601f1916820190925261162591810190612307565b60015b611682573d808015611656576040519150601f19603f3d011682016040523d82523d6000602084013e61165b565b606091505b50805161167a5760405162461bcd60e51b815260040161057390612278565b805181602001fd5b6001600160e01b031916630a85bd0160e11b149050610f6a565b506001949350505050565b6116b1838361186a565b6116be60008484846115a9565b6106a95760405162461bcd60e51b815260040161057390612278565b600060016116e7846109ef565b6116f19190612213565b600083815260076020526040902054909150808214611744576001600160a01b03841660009081526006602090815260408083208584528252808320548484528184208190558352600790915290208190555b5060009182526007602090815260408084208490556001600160a01b039094168352600681528383209183525290812055565b60085460009061178990600190612213565b600083815260096020526040812054600880549394509092849081106117b1576117b16120ab565b9060005260206000200154905080600883815481106117d2576117d26120ab565b600091825260208083209091019290925582815260099091526040808220849055858252812055600880548061180a5761180a612324565b6001900381819060005260206000200160009055905550505050565b6000611831836109ef565b6001600160a01b039093166000908152600660209081526040808320868452825280832085905593825260079052919091209190915550565b6001600160a01b0382166118c05760405162461bcd60e51b815260206004820181905260248201527f4552433732313a206d696e7420746f20746865207a65726f20616464726573736044820152606401610573565b6000818152600260205260409020546001600160a01b0316156119255760405162461bcd60e51b815260206004820152601c60248201527f4552433732313a20746f6b656e20616c7265616479206d696e746564000000006044820152606401610573565b611931600083836114f1565b6001600160a01b038216600090815260036020526040812080546001929061195a9084906121df565b909155505060008181526002602052604080822080546001600160a01b0319166001600160a01b03861690811790915590518392907fddf252ad1be2c89b69c2b068fc378daa952ba7f163c4a11628f55a4df523b3ef908290a45050565b8280546119c490611d98565b90600052602060002090601f0160209004810192826119e65760008555611a2c565b82601f106119ff57805160ff1916838001178555611a2c565b82800160010185558215611a2c579182015b82811115611a2c578251825591602001919060010190611a11565b50611a38929150611a3c565b5090565b5b80821115611a385760008155600101611a3d565b6001600160e01b0319811681146108c757600080fd5b600060208284031215611a7957600080fd5b8135611a8481611a51565b9392505050565b60005b83811015611aa6578181015183820152602001611a8e565b83811115610afc5750506000910152565b60008151808452611acf816020860160208601611a8b565b601f01601f19169290920160200192915050565b602081526000611a846020830184611ab7565b600060208284031215611b0857600080fd5b5035919050565b80356001600160a01b0381168114611b2657600080fd5b919050565b60008060408385031215611b3e57600080fd5b611b4783611b0f565b946020939093013593505050565b600080600060608486031215611b6a57600080fd5b611b7384611b0f565b9250611b8160208501611b0f565b9150604084013590509250925092565b600080600060608486031215611ba657600080fd5b505081359360208301359350604090920135919050565b600060208284031215611bcf57600080fd5b611a8482611b0f565b60008060408385031215611beb57600080fd5b611bf483611b0f565b915060208301358015158114611c0957600080fd5b809150509250929050565b634e487b7160e01b600052604160045260246000fd5b600067ffffffffffffffff80841115611c4557611c45611c14565b604051601f8501601f19908116603f01168101908282118183101715611c6d57611c6d611c14565b81604052809350858152868686011115611c8657600080fd5b858560208301376000602087830101525050509392505050565b60008060008060808587031215611cb657600080fd5b611cbf85611b0f565b9350611ccd60208601611b0f565b925060408501359150606085013567ffffffffffffffff811115611cf057600080fd5b8501601f81018713611d0157600080fd5b611d1087823560208401611c2a565b91505092959194509250565b600060208284031215611d2e57600080fd5b813567ffffffffffffffff811115611d4557600080fd5b8201601f81018413611d5657600080fd5b610f6a84823560208401611c2a565b60008060408385031215611d7857600080fd5b611d8183611b0f565b9150611d8f60208401611b0f565b90509250929050565b600181811c90821680611dac57607f821691505b60208210811415611dcd57634e487b7160e01b600052602260045260246000fd5b50919050565b60208082526031908201527f4552433732313a207472616e736665722063616c6c6572206973206e6f74206f6040820152701ddb995c881b9bdc88185c1c1c9bdd9959607a1b606082015260800190565b634e487b7160e01b600052601260045260246000fd5b600082611e4957611e49611e24565b500690565b7f3c737667206865696768743d22313030222077696474683d223230302220786d8152600060207f6c6e733d22687474703a2f2f7777772e77332e6f72672f323030302f73766722818401527f20786d6c6e733a786c696e6b3d22687474703a2f2f7777772e77332e6f72672f60408401527f313939392f786c696e6b223e3c72656374206865696768743d223530302220776060840152740d2c8e8d07a446a60604440ccd2d8d87a44d0e6d85605b1b60808401528451611f168160958601848901611a8b565b7f2c3530252c32352529222f3e3c7465787420646f6d696e616e742d626173656c6095918501918201527f696e653d226d6964646c652220746578742d616e63686f723d226d6964646c6560b58201527f2220783d223530252220666f6e742d73697a653d2234312220793d223630252260d58201527f2066696c6c3d2268736c283130302c313030252c38302529223e00000000000060f5820152845461010f90600090600181811c9080831680611fd057607f831692505b878310811415611fee57634e487b7160e01b85526022600452602485fd5b808015612002576001811461201757612048565b60ff1985168888015283880187019550612048565b60008c81526020902060005b8581101561203e5781548a82018a0152908401908a01612023565b5050868489010195505b505050505061206a816c1e17ba32bc3a1f1e17b9bb339f60991b8152600d0190565b98975050505050505050565b6020808252818101527f4f776e61626c653a2063616c6c6572206973206e6f7420746865206f776e6572604082015260600190565b634e487b7160e01b600052603260045260246000fd5b683d913730b6b2911d1160b91b8152665245504c41434560c81b600982015271111610113232b9b1b934b83a34b7b7111d1160711b601082015274135e48199a5c9cdd081bdb8818da185a5b881b999d605a1b60228201526c1116101134b6b0b3b2911d101160991b60378201527f646174613a696d6167652f7376672b786d6c3b6261736536342c0000000000006044820152815160009061216b81605e850160208701611a8b565b61227d60f01b605e939091019283015250606001919050565b7f646174613a6170706c69636174696f6e2f6a736f6e3b6261736536342c0000008152600082516121bc81601d850160208701611a8b565b91909101601d0192915050565b634e487b7160e01b600052601160045260246000fd5b600082198211156121f2576121f26121c9565b500190565b60008251612209818460208701611a8b565b9190910192915050565b600082821015612225576122256121c9565b500390565b600060001982141561223e5761223e6121c9565b5060010190565b60008261225457612254611e24565b500490565b6000816000190483118215151615612273576122736121c9565b500290565b60208082526032908201527f4552433732313a207472616e7366657220746f206e6f6e20455243373231526560408201527131b2b4bb32b91034b6b83632b6b2b73a32b960711b606082015260800190565b6001600160a01b03858116825284166020820152604081018390526080606082018190526000906122fd90830184611ab7565b9695505050505050565b60006020828403121561231957600080fd5b8151611a8481611a51565b634e487b7160e01b600052603160045260246000fdfe4142434445464748494a4b4c4d4e4f505152535455565758595a6162636465666768696a6b6c6d6e6f707172737475767778797a303132333435363738392b2fa26469706673582212205cc4b629352fa35cdb4e8e0f80b4eb3027d608ef49c494a9701f36bb605ee27464736f6c634300080b0033",
  "immutableReferences": {},
  "source": "// SPDX-License-Identifier: MIT\r\n\r\n// Amended by HashLips\r\n/**\r\n    !Disclaimer!\r\n    These contracts have been used to create tutorials,\r\n    and was created for the purpose to teach people\r\n    how to create smart contracts on the blockchain.\r\n    please review this code on your own before using any of\r\n    the following code for production.\r\n    HashLips will not be liable in any way if for the use \r\n    of the code. That being said, the code has been tested \r\n    to the best of the developers' knowledge to work as intended.\r\n*/\r\n\r\npragma solidity >=0.7.0 <0.9.0;\r\n\r\nimport \"@openzeppelin/contracts/token/ERC721/extensions/ERC721Enumerable.sol\";\r\nimport \"@openzeppelin/contracts/access/Ownable.sol\";\r\nimport \"./Base64.sol\";\r\n\r\ncontract OnChainNft is ERC721Enumerable, Ownable {\r\n  using Strings for uint256;\r\n  mapping(uint256=>string) tokenMessage;\r\n  mapping(string=>bool) messageExist;\r\n  constructor() ERC721(\"Colored\", \"COLOR\") {}\r\n\r\n  // public\r\n  function mint(string memory _message) public payable {\r\n    uint256 supply = totalSupply();\r\n    require(supply + 1 <= 1000);\r\n    require(bytes(_message).length>0, \"Empty string not allowed\");\r\n    require(!messageExist[_message],\"Message already minted\");\r\n    // if (msg.sender != owner()) {\r\n    //   require(msg.value >= 0.005 ether);\r\n    // }\r\n    // supply+1 is the tokenId\r\n    _safeMint(msg.sender, supply + 1);\r\n    tokenMessage[supply+1] = _message;\r\n    messageExist[_message] = true;\r\n  }\r\n\r\n  function uint2str(uint _i) internal pure returns (string memory _uintAsString) {\r\n        if (_i == 0) {\r\n            return \"0\";\r\n        }\r\n        uint j = _i;\r\n        uint len;\r\n        while (j != 0) {\r\n            len++;\r\n            j /= 10;\r\n        }\r\n        bytes memory bstr = new bytes(len);\r\n        uint k = len;\r\n        while (_i != 0) {\r\n            k = k-1;\r\n            uint8 temp = (48 + uint8(_i - _i / 10 * 10));\r\n            bytes1 b1 = bytes1(temp);\r\n            bstr[k] = b1;\r\n            _i /= 10;\r\n        }\r\n        return string(bstr);\r\n    }\r\n\r\n  function randomNum(uint256 _mod, uint256 _seed, uint256 _salt) public view returns(uint256){\r\n    uint256 num = uint256(keccak256(abi.encodePacked(block.timestamp, msg.sender, _seed, _salt))) % _mod;\r\n    return num;\r\n  }\r\n\r\n  function buildImage(uint256 _tokenId) public view returns(string memory){\r\n      return Base64.encode(bytes(string(abi.encodePacked(\r\n       '<svg height=\"100\" width=\"200\" xmlns=\"http://www.w3.org/2000/svg\" xmlns:xlink=\"http://www.w3.org/1999/xlink\"><rect height=\"500\" width=\"500\" fill=\"hsl(',\r\n       randomNum(361,3,3).toString(),\r\n       ',50%,25%)\"/><text dominant-baseline=\"middle\" text-anchor=\"middle\" x=\"50%\" font-size=\"41\" y=\"60%\" fill=\"hsl(100,100%,80%)\">',\r\n       tokenMessage[_tokenId],\r\n       '</text></svg>'\r\n      ))));\r\n\r\n  }\r\n\r\n  function tokenURI(uint256 tokenId)\r\n    public\r\n    view\r\n    virtual\r\n    override\r\n    returns (string memory)\r\n  {\r\n    require(\r\n      _exists(tokenId),\r\n      \"ERC721Metadata: URI query for nonexistent token\"\r\n    );\r\n    \r\n    string memory _uri = buildImage(tokenId);\r\n    return string(abi.encodePacked(\r\n        'data:application/json;base64,',\r\n        Base64.encode(bytes(abi.encodePacked(\r\n            '{\"name\":\"',\r\n            \"REPLACE\",\r\n            '\", \"description\":\"',\r\n            \"My first on chain nft\",\r\n            '\", \"image\": \"',\r\n            'data:image/svg+xml;base64,',\r\n            _uri,\r\n            '\"}'\r\n        )))\r\n    ));\r\n      \r\n  }\r\n\r\n \r\n  function withdraw() public payable onlyOwner {\r\n    \r\n    // This will payout the owner 95% of the contract balance.\r\n    // Do not remove this otherwise you will not be able to withdraw the funds.\r\n    // =============================================================================\r\n    (bool os, ) = payable(owner()).call{value: address(this).balance}(\"\");\r\n    require(os);\r\n    // =============================================================================\r\n  }\r\n}",
  "sourcePath": "C:\\Users\\User\\Documents\\source codes\\dapps\\nft_onchain\\contracts\\OnChainNft.sol",
  "compiler": {
    "name": "solc",
    "version": "0.8.11+commit.d7f03943.Emscripten.clang"
  },
  "schemaVersion": "3.4.3",
  "updatedAt": "2022-02-12T07:41:22.012Z",
  "networkType": "ethereum",
  "devdoc": {
    "kind": "dev",
    "methods": {
      "approve(address,uint256)": {
        "details": "See {IERC721-approve}."
      },
      "balanceOf(address)": {
        "details": "See {IERC721-balanceOf}."
      },
      "getApproved(uint256)": {
        "details": "See {IERC721-getApproved}."
      },
      "isApprovedForAll(address,address)": {
        "details": "See {IERC721-isApprovedForAll}."
      },
      "name()": {
        "details": "See {IERC721Metadata-name}."
      },
      "owner()": {
        "details": "Returns the address of the current owner."
      },
      "ownerOf(uint256)": {
        "details": "See {IERC721-ownerOf}."
      },
      "renounceOwnership()": {
        "details": "Leaves the contract without owner. It will not be possible to call `onlyOwner` functions anymore. Can only be called by the current owner. NOTE: Renouncing ownership will leave the contract without an owner, thereby removing any functionality that is only available to the owner."
      },
      "safeTransferFrom(address,address,uint256)": {
        "details": "See {IERC721-safeTransferFrom}."
      },
      "safeTransferFrom(address,address,uint256,bytes)": {
        "details": "See {IERC721-safeTransferFrom}."
      },
      "setApprovalForAll(address,bool)": {
        "details": "See {IERC721-setApprovalForAll}."
      },
      "supportsInterface(bytes4)": {
        "details": "See {IERC165-supportsInterface}."
      },
      "symbol()": {
        "details": "See {IERC721Metadata-symbol}."
      },
      "tokenByIndex(uint256)": {
        "details": "See {IERC721Enumerable-tokenByIndex}."
      },
      "tokenOfOwnerByIndex(address,uint256)": {
        "details": "See {IERC721Enumerable-tokenOfOwnerByIndex}."
      },
      "tokenURI(uint256)": {
        "details": "See {IERC721Metadata-tokenURI}."
      },
      "totalSupply()": {
        "details": "See {IERC721Enumerable-totalSupply}."
      },
      "transferFrom(address,address,uint256)": {
        "details": "See {IERC721-transferFrom}."
      },
      "transferOwnership(address)": {
        "details": "Transfers ownership of the contract to a new account (`newOwner`). Can only be called by the current owner."
      }
    },
    "version": 1
  },
  "userdoc": {
    "kind": "user",
    "methods": {},
    "version": 1
  }
}