{
  "contractName": "OnChainNft",
  "abi": [
    {
      "inputs": [],
      "stateMutability": "nonpayable",
      "type": "constructor"
    },
    {
      "anonymous": false,
      "inputs": [
        {
          "indexed": true,
          "internalType": "address",
          "name": "owner",
          "type": "address"
        },
        {
          "indexed": true,
          "internalType": "address",
          "name": "approved",
          "type": "address"
        },
        {
          "indexed": true,
          "internalType": "uint256",
          "name": "tokenId",
          "type": "uint256"
        }
      ],
      "name": "Approval",
      "type": "event"
    },
    {
      "anonymous": false,
      "inputs": [
        {
          "indexed": true,
          "internalType": "address",
          "name": "owner",
          "type": "address"
        },
        {
          "indexed": true,
          "internalType": "address",
          "name": "operator",
          "type": "address"
        },
        {
          "indexed": false,
          "internalType": "bool",
          "name": "approved",
          "type": "bool"
        }
      ],
      "name": "ApprovalForAll",
      "type": "event"
    },
    {
      "anonymous": false,
      "inputs": [
        {
          "indexed": true,
          "internalType": "address",
          "name": "previousOwner",
          "type": "address"
        },
        {
          "indexed": true,
          "internalType": "address",
          "name": "newOwner",
          "type": "address"
        }
      ],
      "name": "OwnershipTransferred",
      "type": "event"
    },
    {
      "anonymous": false,
      "inputs": [
        {
          "indexed": true,
          "internalType": "address",
          "name": "from",
          "type": "address"
        },
        {
          "indexed": true,
          "internalType": "address",
          "name": "to",
          "type": "address"
        },
        {
          "indexed": true,
          "internalType": "uint256",
          "name": "tokenId",
          "type": "uint256"
        }
      ],
      "name": "Transfer",
      "type": "event"
    },
    {
      "inputs": [
        {
          "internalType": "address",
          "name": "to",
          "type": "address"
        },
        {
          "internalType": "uint256",
          "name": "tokenId",
          "type": "uint256"
        }
      ],
      "name": "approve",
      "outputs": [],
      "stateMutability": "nonpayable",
      "type": "function"
    },
    {
      "inputs": [
        {
          "internalType": "address",
          "name": "owner",
          "type": "address"
        }
      ],
      "name": "balanceOf",
      "outputs": [
        {
          "internalType": "uint256",
          "name": "",
          "type": "uint256"
        }
      ],
      "stateMutability": "view",
      "type": "function",
      "constant": true
    },
    {
      "inputs": [
        {
          "internalType": "uint256",
          "name": "tokenId",
          "type": "uint256"
        }
      ],
      "name": "getApproved",
      "outputs": [
        {
          "internalType": "address",
          "name": "",
          "type": "address"
        }
      ],
      "stateMutability": "view",
      "type": "function",
      "constant": true
    },
    {
      "inputs": [
        {
          "internalType": "address",
          "name": "owner",
          "type": "address"
        },
        {
          "internalType": "address",
          "name": "operator",
          "type": "address"
        }
      ],
      "name": "isApprovedForAll",
      "outputs": [
        {
          "internalType": "bool",
          "name": "",
          "type": "bool"
        }
      ],
      "stateMutability": "view",
      "type": "function",
      "constant": true
    },
    {
      "inputs": [],
      "name": "name",
      "outputs": [
        {
          "internalType": "string",
          "name": "",
          "type": "string"
        }
      ],
      "stateMutability": "view",
      "type": "function",
      "constant": true
    },
    {
      "inputs": [],
      "name": "owner",
      "outputs": [
        {
          "internalType": "address",
          "name": "",
          "type": "address"
        }
      ],
      "stateMutability": "view",
      "type": "function",
      "constant": true
    },
    {
      "inputs": [
        {
          "internalType": "uint256",
          "name": "tokenId",
          "type": "uint256"
        }
      ],
      "name": "ownerOf",
      "outputs": [
        {
          "internalType": "address",
          "name": "",
          "type": "address"
        }
      ],
      "stateMutability": "view",
      "type": "function",
      "constant": true
    },
    {
      "inputs": [],
      "name": "renounceOwnership",
      "outputs": [],
      "stateMutability": "nonpayable",
      "type": "function"
    },
    {
      "inputs": [
        {
          "internalType": "address",
          "name": "from",
          "type": "address"
        },
        {
          "internalType": "address",
          "name": "to",
          "type": "address"
        },
        {
          "internalType": "uint256",
          "name": "tokenId",
          "type": "uint256"
        }
      ],
      "name": "safeTransferFrom",
      "outputs": [],
      "stateMutability": "nonpayable",
      "type": "function"
    },
    {
      "inputs": [
        {
          "internalType": "address",
          "name": "from",
          "type": "address"
        },
        {
          "internalType": "address",
          "name": "to",
          "type": "address"
        },
        {
          "internalType": "uint256",
          "name": "tokenId",
          "type": "uint256"
        },
        {
          "internalType": "bytes",
          "name": "_data",
          "type": "bytes"
        }
      ],
      "name": "safeTransferFrom",
      "outputs": [],
      "stateMutability": "nonpayable",
      "type": "function"
    },
    {
      "inputs": [
        {
          "internalType": "address",
          "name": "operator",
          "type": "address"
        },
        {
          "internalType": "bool",
          "name": "approved",
          "type": "bool"
        }
      ],
      "name": "setApprovalForAll",
      "outputs": [],
      "stateMutability": "nonpayable",
      "type": "function"
    },
    {
      "inputs": [
        {
          "internalType": "bytes4",
          "name": "interfaceId",
          "type": "bytes4"
        }
      ],
      "name": "supportsInterface",
      "outputs": [
        {
          "internalType": "bool",
          "name": "",
          "type": "bool"
        }
      ],
      "stateMutability": "view",
      "type": "function",
      "constant": true
    },
    {
      "inputs": [],
      "name": "symbol",
      "outputs": [
        {
          "internalType": "string",
          "name": "",
          "type": "string"
        }
      ],
      "stateMutability": "view",
      "type": "function",
      "constant": true
    },
    {
      "inputs": [
        {
          "internalType": "uint256",
          "name": "index",
          "type": "uint256"
        }
      ],
      "name": "tokenByIndex",
      "outputs": [
        {
          "internalType": "uint256",
          "name": "",
          "type": "uint256"
        }
      ],
      "stateMutability": "view",
      "type": "function",
      "constant": true
    },
    {
      "inputs": [
        {
          "internalType": "address",
          "name": "owner",
          "type": "address"
        },
        {
          "internalType": "uint256",
          "name": "index",
          "type": "uint256"
        }
      ],
      "name": "tokenOfOwnerByIndex",
      "outputs": [
        {
          "internalType": "uint256",
          "name": "",
          "type": "uint256"
        }
      ],
      "stateMutability": "view",
      "type": "function",
      "constant": true
    },
    {
      "inputs": [],
      "name": "totalSupply",
      "outputs": [
        {
          "internalType": "uint256",
          "name": "",
          "type": "uint256"
        }
      ],
      "stateMutability": "view",
      "type": "function",
      "constant": true
    },
    {
      "inputs": [
        {
          "internalType": "address",
          "name": "from",
          "type": "address"
        },
        {
          "internalType": "address",
          "name": "to",
          "type": "address"
        },
        {
          "internalType": "uint256",
          "name": "tokenId",
          "type": "uint256"
        }
      ],
      "name": "transferFrom",
      "outputs": [],
      "stateMutability": "nonpayable",
      "type": "function"
    },
    {
      "inputs": [
        {
          "internalType": "address",
          "name": "newOwner",
          "type": "address"
        }
      ],
      "name": "transferOwnership",
      "outputs": [],
      "stateMutability": "nonpayable",
      "type": "function"
    },
    {
      "inputs": [],
      "name": "mint",
      "outputs": [],
      "stateMutability": "payable",
      "type": "function",
      "payable": true
    },
    {
      "inputs": [
        {
          "internalType": "uint256",
          "name": "_tokenId",
          "type": "uint256"
        }
      ],
      "name": "buildImage",
      "outputs": [
        {
          "internalType": "string",
          "name": "",
          "type": "string"
        }
      ],
      "stateMutability": "pure",
      "type": "function",
      "constant": true
    },
    {
      "inputs": [
        {
          "internalType": "uint256",
          "name": "tokenId",
          "type": "uint256"
        }
      ],
      "name": "tokenURI",
      "outputs": [
        {
          "internalType": "string",
          "name": "",
          "type": "string"
        }
      ],
      "stateMutability": "view",
      "type": "function",
      "constant": true
    },
    {
      "inputs": [],
      "name": "withdraw",
      "outputs": [],
      "stateMutability": "payable",
      "type": "function",
      "payable": true
    }
  ],
  "bytecode": "0x60806040523480156200001157600080fd5b50604080518082018252600c81526b13db8810da185a5b8813919560a21b60208083019182528351808501909452600384526227a1a760e91b9084015281519192916200006191600091620000f0565b50805162000077906001906020840190620000f0565b505050620000946200008e6200009a60201b60201c565b6200009e565b620001d3565b3390565b600a80546001600160a01b038381166001600160a01b0319831681179093556040519116919082907f8be0079c531659141344cd1fd0a4f28419497f9722a3daafe3b4186f6b6457e090600090a35050565b828054620000fe9062000196565b90600052602060002090601f0160209004810192826200012257600085556200016d565b82601f106200013d57805160ff19168380011785556200016d565b828001600101855582156200016d579182015b828111156200016d57825182559160200191906001019062000150565b506200017b9291506200017f565b5090565b5b808211156200017b576000815560010162000180565b600181811c90821680620001ab57607f821691505b60208210811415620001cd57634e487b7160e01b600052602260045260246000fd5b50919050565b611fa580620001e36000396000f3fe6080604052600436106101355760003560e01c80634f6ccce7116100ab57806395d89b411161006f57806395d89b411461032d578063a22cb46514610342578063b88d4fde14610362578063c87b56dd14610382578063e985e9c5146103a2578063f2fde38b146103eb57600080fd5b80634f6ccce71461029a5780636352211e146102ba57806370a08231146102da578063715018a6146102fa5780638da5cb5b1461030f57600080fd5b806318160ddd116100fd57806318160ddd146101f357806323b872dd146102125780632ba80eba146102325780632f745c59146102525780633ccfd60b1461027257806342842e0e1461027a57600080fd5b806301ffc9a71461013a57806306fdde031461016f578063081812fc14610191578063095ea7b3146101c95780631249c58b146101eb575b600080fd5b34801561014657600080fd5b5061015a610155366004611842565b61040b565b60405190151581526020015b60405180910390f35b34801561017b57600080fd5b50610184610436565b60405161016691906118be565b34801561019d57600080fd5b506101b16101ac3660046118d1565b6104c8565b6040516001600160a01b039091168152602001610166565b3480156101d557600080fd5b506101e96101e4366004611906565b610562565b005b6101e9610678565b3480156101ff57600080fd5b506008545b604051908152602001610166565b34801561021e57600080fd5b506101e961022d366004611930565b6106db565b34801561023e57600080fd5b5061018461024d3660046118d1565b61070c565b34801561025e57600080fd5b5061020461026d366004611906565b61073e565b6101e96107d4565b34801561028657600080fd5b506101e9610295366004611930565b61086f565b3480156102a657600080fd5b506102046102b53660046118d1565b61088a565b3480156102c657600080fd5b506101b16102d53660046118d1565b61091d565b3480156102e657600080fd5b506102046102f536600461196c565b610994565b34801561030657600080fd5b506101e9610a1b565b34801561031b57600080fd5b50600a546001600160a01b03166101b1565b34801561033957600080fd5b50610184610a51565b34801561034e57600080fd5b506101e961035d366004611987565b610a60565b34801561036e57600080fd5b506101e961037d3660046119d9565b610a6f565b34801561038e57600080fd5b5061018461039d3660046118d1565b610aa7565b3480156103ae57600080fd5b5061015a6103bd366004611ab5565b6001600160a01b03918216600090815260056020908152604080832093909416825291909152205460ff1690565b3480156103f757600080fd5b506101e961040636600461196c565b610b6e565b60006001600160e01b0319821663780e9d6360e01b1480610430575061043082610c06565b92915050565b60606000805461044590611ae8565b80601f016020809104026020016040519081016040528092919081815260200182805461047190611ae8565b80156104be5780601f10610493576101008083540402835291602001916104be565b820191906000526020600020905b8154815290600101906020018083116104a157829003601f168201915b5050505050905090565b6000818152600260205260408120546001600160a01b03166105465760405162461bcd60e51b815260206004820152602c60248201527f4552433732313a20617070726f76656420717565727920666f72206e6f6e657860448201526b34b9ba32b73a103a37b5b2b760a11b60648201526084015b60405180910390fd5b506000908152600460205260409020546001600160a01b031690565b600061056d8261091d565b9050806001600160a01b0316836001600160a01b031614156105db5760405162461bcd60e51b815260206004820152602160248201527f4552433732313a20617070726f76616c20746f2063757272656e74206f776e656044820152603960f91b606482015260840161053d565b336001600160a01b03821614806105f757506105f781336103bd565b6106695760405162461bcd60e51b815260206004820152603860248201527f4552433732313a20617070726f76652063616c6c6572206973206e6f74206f7760448201527f6e6572206e6f7220617070726f76656420666f7220616c6c0000000000000000606482015260840161053d565b6106738383610c56565b505050565b600061068360085490565b90506103e8610693826001611b39565b111561069e57600080fd5b600a546001600160a01b031633146106c4576611c37937e080003410156106c457600080fd5b6106d8336106d3836001611b39565b610cc4565b50565b6106e53382610cde565b6107015760405162461bcd60e51b815260040161053d90611b51565b610673838383610dd5565b606061043061071a83610f80565b60405160200161072a9190611ba2565b6040516020818303038152906040526110a9565b600061074983610994565b82106107ab5760405162461bcd60e51b815260206004820152602b60248201527f455243373231456e756d657261626c653a206f776e657220696e646578206f7560448201526a74206f6620626f756e647360a81b606482015260840161053d565b506001600160a01b03919091166000908152600660209081526040808320938352929052205490565b600a546001600160a01b031633146107fe5760405162461bcd60e51b815260040161053d90611c82565b6000610812600a546001600160a01b031690565b6001600160a01b03164760405160006040518083038185875af1925050503d806000811461085c576040519150601f19603f3d011682016040523d82523d6000602084013e610861565b606091505b50509050806106d857600080fd5b61067383838360405180602001604052806000815250610a6f565b600061089560085490565b82106108f85760405162461bcd60e51b815260206004820152602c60248201527f455243373231456e756d657261626c653a20676c6f62616c20696e646578206f60448201526b7574206f6620626f756e647360a01b606482015260840161053d565b6008828154811061090b5761090b611cb7565b90600052602060002001549050919050565b6000818152600260205260408120546001600160a01b0316806104305760405162461bcd60e51b815260206004820152602960248201527f4552433732313a206f776e657220717565727920666f72206e6f6e657869737460448201526832b73a103a37b5b2b760b91b606482015260840161053d565b60006001600160a01b0382166109ff5760405162461bcd60e51b815260206004820152602a60248201527f4552433732313a2062616c616e636520717565727920666f7220746865207a65604482015269726f206164647265737360b01b606482015260840161053d565b506001600160a01b031660009081526003602052604090205490565b600a546001600160a01b03163314610a455760405162461bcd60e51b815260040161053d90611c82565b610a4f6000611211565b565b60606001805461044590611ae8565b610a6b338383611263565b5050565b610a793383610cde565b610a955760405162461bcd60e51b815260040161053d90611b51565b610aa184848484611332565b50505050565b6000818152600260205260409020546060906001600160a01b0316610b265760405162461bcd60e51b815260206004820152602f60248201527f4552433732314d657461646174613a2055524920717565727920666f72206e6f60448201526e3732bc34b9ba32b73a103a37b5b2b760891b606482015260840161053d565b6000610b318361070c565b9050610b478160405160200161072a9190611ccd565b604051602001610b579190611d90565b604051602081830303815290604052915050919050565b600a546001600160a01b03163314610b985760405162461bcd60e51b815260040161053d90611c82565b6001600160a01b038116610bfd5760405162461bcd60e51b815260206004820152602660248201527f4f776e61626c653a206e6577206f776e657220697320746865207a65726f206160448201526564647265737360d01b606482015260840161053d565b6106d881611211565b60006001600160e01b031982166380ac58cd60e01b1480610c3757506001600160e01b03198216635b5e139f60e01b145b8061043057506301ffc9a760e01b6001600160e01b0319831614610430565b600081815260046020526040902080546001600160a01b0319166001600160a01b0384169081179091558190610c8b8261091d565b6001600160a01b03167f8c5be1e5ebec7d5bd14f71427d1e84f3dd0314c0f7b2291e5b200ac8c7c3b92560405160405180910390a45050565b610a6b828260405180602001604052806000815250611365565b6000818152600260205260408120546001600160a01b0316610d575760405162461bcd60e51b815260206004820152602c60248201527f4552433732313a206f70657261746f7220717565727920666f72206e6f6e657860448201526b34b9ba32b73a103a37b5b2b760a11b606482015260840161053d565b6000610d628361091d565b9050806001600160a01b0316846001600160a01b03161480610d9d5750836001600160a01b0316610d92846104c8565b6001600160a01b0316145b80610dcd57506001600160a01b0380821660009081526005602090815260408083209388168352929052205460ff165b949350505050565b826001600160a01b0316610de88261091d565b6001600160a01b031614610e505760405162461bcd60e51b815260206004820152602960248201527f4552433732313a207472616e73666572206f6620746f6b656e2074686174206960448201526839903737ba1037bbb760b91b606482015260840161053d565b6001600160a01b038216610eb25760405162461bcd60e51b8152602060048201526024808201527f4552433732313a207472616e7366657220746f20746865207a65726f206164646044820152637265737360e01b606482015260840161053d565b610ebd838383611398565b610ec8600082610c56565b6001600160a01b0383166000908152600360205260408120805460019290610ef1908490611dd5565b90915550506001600160a01b0382166000908152600360205260408120805460019290610f1f908490611b39565b909155505060008181526002602052604080822080546001600160a01b0319166001600160a01b0386811691821790925591518493918716917fddf252ad1be2c89b69c2b068fc378daa952ba7f163c4a11628f55a4df523b3ef91a4505050565b606081610fa45750506040805180820190915260018152600360fc1b602082015290565b8160005b8115610fce5780610fb881611dec565b9150610fc79050600a83611e07565b9150610fa8565b60008167ffffffffffffffff811115610fe957610fe96119c3565b6040519080825280601f01601f191660200182016040528015611013576020820181803683370190505b509050815b85156110a057611029600182611dd5565b90506000611038600a88611e07565b61104390600a611e29565b61104d9088611dd5565b611058906030611e48565b905060008160f81b90508084848151811061107557611075611cb7565b60200101906001600160f81b031916908160001a905350611097600a89611e07565b97505050611018565b50949350505050565b60608151600014156110c957505060408051602081019091526000815290565b6000604051806060016040528060408152602001611f3060409139905060006003845160026110f89190611b39565b6111029190611e07565b61110d906004611e29565b9050600061111c826020611b39565b67ffffffffffffffff811115611134576111346119c3565b6040519080825280601f01601f19166020018201604052801561115e576020820181803683370190505b509050818152600183018586518101602084015b818310156111cc5760039283018051603f601282901c811687015160f890811b8552600c83901c8216880151811b6001860152600683901c8216880151811b60028601529116860151901b93820193909352600401611172565b6003895106600181146111e657600281146111f757611203565b613d3d60f01b600119830152611203565b603d60f81b6000198301525b509398975050505050505050565b600a80546001600160a01b038381166001600160a01b0319831681179093556040519116919082907f8be0079c531659141344cd1fd0a4f28419497f9722a3daafe3b4186f6b6457e090600090a35050565b816001600160a01b0316836001600160a01b031614156112c55760405162461bcd60e51b815260206004820152601960248201527f4552433732313a20617070726f766520746f2063616c6c657200000000000000604482015260640161053d565b6001600160a01b03838116600081815260056020908152604080832094871680845294825291829020805460ff191686151590811790915591519182527f17307eab39ab6107e8899845ad3d59bd9653f200f220920489ca2b5937696c31910160405180910390a3505050565b61133d848484610dd5565b61134984848484611450565b610aa15760405162461bcd60e51b815260040161053d90611e6d565b61136f838361154e565b61137c6000848484611450565b6106735760405162461bcd60e51b815260040161053d90611e6d565b6001600160a01b0383166113f3576113ee81600880546000838152600960205260408120829055600182018355919091527ff3f7a9fe364faab93b216da50a3214154f22a0a2b415b23a84c8169e8b636ee30155565b611416565b816001600160a01b0316836001600160a01b03161461141657611416838261169c565b6001600160a01b03821661142d5761067381611739565b826001600160a01b0316826001600160a01b0316146106735761067382826117e8565b60006001600160a01b0384163b1561154357604051630a85bd0160e11b81526001600160a01b0385169063150b7a0290611494903390899088908890600401611ebf565b6020604051808303816000875af19250505080156114cf575060408051601f3d908101601f191682019092526114cc91810190611efc565b60015b611529573d8080156114fd576040519150601f19603f3d011682016040523d82523d6000602084013e611502565b606091505b5080516115215760405162461bcd60e51b815260040161053d90611e6d565b805181602001fd5b6001600160e01b031916630a85bd0160e11b149050610dcd565b506001949350505050565b6001600160a01b0382166115a45760405162461bcd60e51b815260206004820181905260248201527f4552433732313a206d696e7420746f20746865207a65726f2061646472657373604482015260640161053d565b6000818152600260205260409020546001600160a01b0316156116095760405162461bcd60e51b815260206004820152601c60248201527f4552433732313a20746f6b656e20616c7265616479206d696e74656400000000604482015260640161053d565b61161560008383611398565b6001600160a01b038216600090815260036020526040812080546001929061163e908490611b39565b909155505060008181526002602052604080822080546001600160a01b0319166001600160a01b03861690811790915590518392907fddf252ad1be2c89b69c2b068fc378daa952ba7f163c4a11628f55a4df523b3ef908290a45050565b600060016116a984610994565b6116b39190611dd5565b600083815260076020526040902054909150808214611706576001600160a01b03841660009081526006602090815260408083208584528252808320548484528184208190558352600790915290208190555b5060009182526007602090815260408084208490556001600160a01b039094168352600681528383209183525290812055565b60085460009061174b90600190611dd5565b6000838152600960205260408120546008805493945090928490811061177357611773611cb7565b90600052602060002001549050806008838154811061179457611794611cb7565b60009182526020808320909101929092558281526009909152604080822084905585825281205560088054806117cc576117cc611f19565b6001900381819060005260206000200160009055905550505050565b60006117f383610994565b6001600160a01b039093166000908152600660209081526040808320868452825280832085905593825260079052919091209190915550565b6001600160e01b0319811681146106d857600080fd5b60006020828403121561185457600080fd5b813561185f8161182c565b9392505050565b60005b83811015611881578181015183820152602001611869565b83811115610aa15750506000910152565b600081518084526118aa816020860160208601611866565b601f01601f19169290920160200192915050565b60208152600061185f6020830184611892565b6000602082840312156118e357600080fd5b5035919050565b80356001600160a01b038116811461190157600080fd5b919050565b6000806040838503121561191957600080fd5b611922836118ea565b946020939093013593505050565b60008060006060848603121561194557600080fd5b61194e846118ea565b925061195c602085016118ea565b9150604084013590509250925092565b60006020828403121561197e57600080fd5b61185f826118ea565b6000806040838503121561199a57600080fd5b6119a3836118ea565b9150602083013580151581146119b857600080fd5b809150509250929050565b634e487b7160e01b600052604160045260246000fd5b600080600080608085870312156119ef57600080fd5b6119f8856118ea565b9350611a06602086016118ea565b925060408501359150606085013567ffffffffffffffff80821115611a2a57600080fd5b818701915087601f830112611a3e57600080fd5b813581811115611a5057611a506119c3565b604051601f8201601f19908116603f01168101908382118183101715611a7857611a786119c3565b816040528281528a6020848701011115611a9157600080fd5b82602086016020830137600060208483010152809550505050505092959194509250565b60008060408385031215611ac857600080fd5b611ad1836118ea565b9150611adf602084016118ea565b90509250929050565b600181811c90821680611afc57607f821691505b60208210811415611b1d57634e487b7160e01b600052602260045260246000fd5b50919050565b634e487b7160e01b600052601160045260246000fd5b60008219821115611b4c57611b4c611b23565b500190565b60208082526031908201527f4552433732313a207472616e736665722063616c6c6572206973206e6f74206f6040820152701ddb995c881b9bdc88185c1c1c9bdd9959607a1b606082015260800190565b7f3c737667206865696768743d223330222077696474683d223230302220786d6c81527f6e733d22687474703a2f2f7777772e77332e6f72672f323030302f737667222060208201527f786d6c6e733a786c696e6b3d22687474703a2f2f7777772e77332e6f72672f3160408201527f3939392f786c696e6b223e3c7465787420783d22302220793d2231352220666960608201526836361e913932b2111f60b91b608082015260008251611c5e816089850160208701611866565b6c1e17ba32bc3a1f1e17b9bb339f60991b6089939091019283015250609601919050565b6020808252818101527f4f776e61626c653a2063616c6c6572206973206e6f7420746865206f776e6572604082015260600190565b634e487b7160e01b600052603260045260246000fd5b683d913730b6b2911d1160b91b8152665245504c41434560c81b600982015271111610113232b9b1b934b83a34b7b7111d1160711b601082015274135e48199a5c9cdd081bdb8818da185a5b881b999d605a1b60228201526c1116101134b6b0b3b2911d101160991b60378201527f646174613a696d6167652f7376672b786d6c3b6261736536342c00000000000060448201528151600090611d7781605e850160208701611866565b61227d60f01b605e939091019283015250606001919050565b7f646174613a6170706c69636174696f6e2f6a736f6e3b6261736536342c000000815260008251611dc881601d850160208701611866565b91909101601d0192915050565b600082821015611de757611de7611b23565b500390565b6000600019821415611e0057611e00611b23565b5060010190565b600082611e2457634e487b7160e01b600052601260045260246000fd5b500490565b6000816000190483118215151615611e4357611e43611b23565b500290565b600060ff821660ff84168060ff03821115611e6557611e65611b23565b019392505050565b60208082526032908201527f4552433732313a207472616e7366657220746f206e6f6e20455243373231526560408201527131b2b4bb32b91034b6b83632b6b2b73a32b960711b606082015260800190565b6001600160a01b0385811682528416602082015260408101839052608060608201819052600090611ef290830184611892565b9695505050505050565b600060208284031215611f0e57600080fd5b815161185f8161182c565b634e487b7160e01b600052603160045260246000fdfe4142434445464748494a4b4c4d4e4f505152535455565758595a6162636465666768696a6b6c6d6e6f707172737475767778797a303132333435363738392b2fa2646970667358221220b86661c3f1c2be09fb793a56312a088da8ba010c2ee170e3d401251503dfea2164736f6c634300080b0033",
  "immutableReferences": {},
  "source": "// SPDX-License-Identifier: MIT\r\n\r\n// Amended by HashLips\r\n/**\r\n    !Disclaimer!\r\n    These contracts have been used to create tutorials,\r\n    and was created for the purpose to teach people\r\n    how to create smart contracts on the blockchain.\r\n    please review this code on your own before using any of\r\n    the following code for production.\r\n    HashLips will not be liable in any way if for the use \r\n    of the code. That being said, the code has been tested \r\n    to the best of the developers' knowledge to work as intended.\r\n*/\r\n\r\npragma solidity >=0.7.0 <0.9.0;\r\n\r\nimport \"@openzeppelin/contracts/token/ERC721/extensions/ERC721Enumerable.sol\";\r\nimport \"@openzeppelin/contracts/access/Ownable.sol\";\r\nimport \"./Base64.sol\";\r\n\r\ncontract OnChainNft is ERC721Enumerable, Ownable {\r\n  using Strings for uint256;\r\n\r\n  constructor() ERC721(\"On Chain NFT\", \"OCN\") {}\r\n\r\n  // public\r\n  function mint() public payable {\r\n    uint256 supply = totalSupply();\r\n    require(supply + 1 <= 1000);\r\n\r\n    if (msg.sender != owner()) {\r\n      require(msg.value >= 0.005 ether);\r\n    }\r\n    // supply+1 is the tokenId\r\n    _safeMint(msg.sender, supply + 1);\r\n  }\r\n\r\n  function uint2str(uint _i) internal pure returns (string memory _uintAsString) {\r\n        if (_i == 0) {\r\n            return \"0\";\r\n        }\r\n        uint j = _i;\r\n        uint len;\r\n        while (j != 0) {\r\n            len++;\r\n            j /= 10;\r\n        }\r\n        bytes memory bstr = new bytes(len);\r\n        uint k = len;\r\n        while (_i != 0) {\r\n            k = k-1;\r\n            uint8 temp = (48 + uint8(_i - _i / 10 * 10));\r\n            bytes1 b1 = bytes1(temp);\r\n            bstr[k] = b1;\r\n            _i /= 10;\r\n        }\r\n        return string(bstr);\r\n    }\r\n\r\n  function buildImage(uint256 _tokenId) public pure returns(string memory){\r\n      return Base64.encode(bytes(string(abi.encodePacked(\r\n       '<svg height=\"30\" width=\"200\" xmlns=\"http://www.w3.org/2000/svg\" xmlns:xlink=\"http://www.w3.org/1999/xlink\"><text x=\"0\" y=\"15\" fill=\"red\">',\r\n       uint2str(_tokenId),\r\n       '</text></svg>'\r\n      ))));\r\n\r\n  }\r\n\r\n  function tokenURI(uint256 tokenId)\r\n    public\r\n    view\r\n    virtual\r\n    override\r\n    returns (string memory)\r\n  {\r\n    require(\r\n      _exists(tokenId),\r\n      \"ERC721Metadata: URI query for nonexistent token\"\r\n    );\r\n    \r\n    string memory _uri = buildImage(tokenId);\r\n    return string(abi.encodePacked(\r\n        'data:application/json;base64,',\r\n        Base64.encode(bytes(abi.encodePacked(\r\n            '{\"name\":\"',\r\n            \"REPLACE\",\r\n            '\", \"description\":\"',\r\n            \"My first on chain nft\",\r\n            '\", \"image\": \"',\r\n            'data:image/svg+xml;base64,',\r\n            _uri,\r\n            '\"}'\r\n        )))\r\n    ));\r\n      \r\n  }\r\n\r\n \r\n  function withdraw() public payable onlyOwner {\r\n    \r\n    // This will payout the owner 95% of the contract balance.\r\n    // Do not remove this otherwise you will not be able to withdraw the funds.\r\n    // =============================================================================\r\n    (bool os, ) = payable(owner()).call{value: address(this).balance}(\"\");\r\n    require(os);\r\n    // =============================================================================\r\n  }\r\n}",
  "sourcePath": "C:\\Users\\User\\Documents\\source codes\\dapps\\nft_onchain\\contracts\\OnChainNft.sol",
  "compiler": {
    "name": "solc",
    "version": "0.8.11+commit.d7f03943.Emscripten.clang"
  },
  "schemaVersion": "3.4.3",
  "updatedAt": "2022-02-10T08:13:22.329Z",
  "networkType": "ethereum",
  "devdoc": {
    "kind": "dev",
    "methods": {
      "approve(address,uint256)": {
        "details": "See {IERC721-approve}."
      },
      "balanceOf(address)": {
        "details": "See {IERC721-balanceOf}."
      },
      "getApproved(uint256)": {
        "details": "See {IERC721-getApproved}."
      },
      "isApprovedForAll(address,address)": {
        "details": "See {IERC721-isApprovedForAll}."
      },
      "name()": {
        "details": "See {IERC721Metadata-name}."
      },
      "owner()": {
        "details": "Returns the address of the current owner."
      },
      "ownerOf(uint256)": {
        "details": "See {IERC721-ownerOf}."
      },
      "renounceOwnership()": {
        "details": "Leaves the contract without owner. It will not be possible to call `onlyOwner` functions anymore. Can only be called by the current owner. NOTE: Renouncing ownership will leave the contract without an owner, thereby removing any functionality that is only available to the owner."
      },
      "safeTransferFrom(address,address,uint256)": {
        "details": "See {IERC721-safeTransferFrom}."
      },
      "safeTransferFrom(address,address,uint256,bytes)": {
        "details": "See {IERC721-safeTransferFrom}."
      },
      "setApprovalForAll(address,bool)": {
        "details": "See {IERC721-setApprovalForAll}."
      },
      "supportsInterface(bytes4)": {
        "details": "See {IERC165-supportsInterface}."
      },
      "symbol()": {
        "details": "See {IERC721Metadata-symbol}."
      },
      "tokenByIndex(uint256)": {
        "details": "See {IERC721Enumerable-tokenByIndex}."
      },
      "tokenOfOwnerByIndex(address,uint256)": {
        "details": "See {IERC721Enumerable-tokenOfOwnerByIndex}."
      },
      "tokenURI(uint256)": {
        "details": "See {IERC721Metadata-tokenURI}."
      },
      "totalSupply()": {
        "details": "See {IERC721Enumerable-totalSupply}."
      },
      "transferFrom(address,address,uint256)": {
        "details": "See {IERC721-transferFrom}."
      },
      "transferOwnership(address)": {
        "details": "Transfers ownership of the contract to a new account (`newOwner`). Can only be called by the current owner."
      }
    },
    "version": 1
  },
  "userdoc": {
    "kind": "user",
    "methods": {},
    "version": 1
  }
}